:020000040800F2
:1000000000040020390200083B020008F124000827
:100010003B0200083B0200083B0200083B020008CC
:100020003B0200083B0200083B020008E54F0008C5
:100030003B0200083B0200083B0200083B020008AC
:100040003B0200083B0200083B0200083B0200089C
:100050003B0200083B0200083B0200083B0200088C
:100060003B0200083B0200083B020008595A000806
:10007000895A0008BD5A0008F15A0008255B00089B
:10008000555B0008895B00083B0200083B02000842
:100090003B0200083B0200083B0200083B0200084C
:1000A0003B0200083B0200083B0200083B0200083C
:1000B0004D3E00083B0200083B0200083B020008DE
:1000C0003B0200083B0200083B020008E52A00084A
:1000D000252B00083B0200083B0200083B020008F9
:1000E0003B0200083B0200083B0200083B020008FC
:1000F0003B0200083B0200083B020008BD5B000811
:100100003B0200083B020008ED170008652B0008C1
:100110003B0200083B0200083B0200083B020008CB
:10012000F15B0008215C0008555C0008895C000850
:10013000BD5C00083B0200083B0200083B020008CF
:100140003B0200083B0200083B0200087157000810
:10015000ED5C0008215D0008555D00083B020008C9
:100160003B0200083B0200083B0200083B0200087B
:100170003B0200083B0200083B0200083B0200086B
:100180003B0200083B0200083B0200083B0200085B
:100190003B0200083B0200083B0200083B0200084B
:1001A0003B0200083B0200083B0200083B0200083B
:1001B0003B0200083B0200083B0200083B0200082B
:1001C0003B0200083B0200083B0200083B0200081B
:1001D0003B0200083B0200083B0200083B0200080B
:1001E0001D02000895120008F5130008791E00088A
:0801F00035620008F901000866
:1001F80010B5054C237833B9044B13B10448AFF359
:1002080000800123237010BDE009002000000000D9
:10021800608C000808B5034B1BB103490348AFF3D2
:10022800008008BD00000000E4090020608C000880
:1002380020E000F000F8FEE72DE9F04F2DED108AE0
:10024800C1F80CD0C3689D46BDEC108ABDE8F08F9C
:1002580004F0A8F9002383F311882846A04700205A
:1002680004F0DEFD04F08EF904F0ACFB04F09AF91A
:1002780000DFFEE772B6394880F30888384880F313
:10028800098838484EF60851CEF20001086040F25D
:100298000000CCF200004EF63471CEF20001086086
:1002A800BFF34F8FBFF36F8F40F20000C0F2F00032
:1002B8004EF68851CEF200010860BFF34F8FBFF3AE
:1002C8006F8F4FF00000E1EE100A4EF63C71CEF24F
:1002D80000010860062080F31488BFF36F8F03F0D5
:1002E8000DF902F061FB4FF055301F491B4A91424E
:1002F8003CBF41F8040BFAE71C49194A91423CBF3C
:1003080041F8040BFAE71A491A4A1B4B9A423EBFB6
:1003180051F8040B42F8040BF8E700201749184A73
:1003280091423CBF41F8040BFAE703F0EBF803F005
:10033800E6F8144C144DAC4203DA54F8041B884711
:10034800F9E701F073FB114C114DAC4203DA54F894
:10035800041B8847F9E703F0D3B800000004002025
:100368000008002000000008000000200004002011
:10037800608C000800080020E0090020E009002047
:10038800FC290020E0010008F4010008F40100083D
:10039800F8010008034613F8012B002AFBD1181AAC
:1003A8000138704781F0004102E000BF83F000434C
:1003B80030B54FEA41044FEA430594EA050F08BFF8
:1003C80090EA020F1FBF54EA000C55EA020C7FEABC
:1003D800645C7FEA655C00F0E2804FEA5454D4EB39
:1003E8005555B8BF6D420CDD2C4480EA020281EA03
:1003F800030382EA000083EA010180EA020281EA3B
:100408000303362D88BF30BD11F0004F4FEA01318C
:100418004FF4801C4CEA113102D0404261EB41019B
:1004280013F0004F4FEA03334CEA133302D0524221
:1004380063EB430394EA050F00F0A780A4F10104DD
:10044800D5F1200E0DDB02FA0EFC22FA05F2801817
:1004580041F1000103FA0EF2801843FA05F35941FD
:100468000EE0A5F120050EF1200E012A03FA0EFC7C
:1004780028BF4CF0020C43FA05F3C01851EBE371A6
:1004880001F0004507D54FF0000EDCF1000C7EEBC3
:1004980000006EEB0101B1F5801F1BD3B1F5001F01
:1004A8000CD349085FEA30004FEA3C0C04F1010420
:1004B8004FEA445212F5800F80F09A80BCF1004F49
:1004C80008BF5FEA500C50F1000041EB045141EACB
:1004D800050130BD5FEA4C0C404141EB010111F4CC
:1004E800801FA4F10104E9D191F0000F04BF014677
:1004F8000020B1FA81F308BF2033A3F10B03B3F155
:1005080020020CDA0C3208DD02F1140CC2F10C02E4
:1005180001FA0CF021FA02F10CE002F11402D8BF42
:10052800C2F1200C01FA02F120FA0CFCDCBF41EA0E
:100538000C019040E41AA2BF01EB0451294330BDDD
:100548006FEA04041F3C1CDA0C340EDC04F11404BA
:10055800C4F1200220FA04F001FA02F340EA030091
:1005680021FA04F345EA030130BDC4F10C04C4F1D7
:10057800200220FA02F001FA04F340EA03002946B7
:1005880030BD21FA04F0294630BD94F0000F83F401
:10059800801306BF81F480110134013D4EE77FEAE4
:1005A800645C18BF7FEA655C29D094EA050F08BF30
:1005B80090EA020F05D054EA000C04BF1946104611
:1005C80030BD91EA030F1EBF0021002030BD5FEA55
:1005D800545C05D14000494128BF41F0004130BD7D
:1005E80014F580043CBF01F5801130BD01F00045D1
:1005F80045F0FE4141F470014FF0000030BD7FEA44
:10060800645C1ABF194610467FEA655C1CBF0B463E
:10061800024650EA013406BF52EA033591EA030F55
:1006280041F4002130BD00BF90F0000F04BF00214D
:10063800704730B54FF4806404F132044FF0000580
:100648004FF0000150E700BF90F0000F04BF0021F9
:10065800704730B54FF4806404F1320410F000455F
:1006680048BF40424FF000013EE700BF42004FEA5A
:10067800E2014FEA31014FEA02701FBF12F07F43D7
:1006880093F07F4F81F06051704732F07F4208BF8E
:10069800704793F07F4F04BF41F40021704730B595
:1006A8004FF4607401F0004521F000411CE700BFE1
:1006B80050EA010208BF704730B54FF000050AE064
:1006C80050EA010208BF704730B511F0004502D565
:1006D800404261EB41014FF4806404F132045FEA67
:1006E800915C3FF4D8AE4FF003025FEADC0C18BF10
:1006F80003325FEADC0C18BF033202EBDC02C2F102
:10070800200300FA03FC20FA02F001FA03FE40EA93
:100718000E0021FA02F11444BDE600BF70B54FF097
:10072800FF0C4CF4E06C1CEA11541DBF1CEA135575
:1007380094EA0C0F95EA0C0F00F0DEF82C4481EADD
:10074800030621EA4C5123EA4C5350EA013518BFFD
:1007580052EA033541F4801143F4801338D0A0FBEA
:1007680002CE4FF00005E1FB02E506F00042E0FB97
:1007780003E54FF00006E1FB03569CF0000F18BF9D
:100788004EF0010EA4F1FF04B6F5007F64F5407445
:1007980004D25FEA4E0E6D4146EB060642EAC621D8
:1007A80041EA55514FEAC52040EA5E504FEACE2E45
:1007B800B4F1FD0C88BFBCF5E06F1ED8BEF1004F48
:1007C80008BF5FEA500E50F1000041EB045170BDC4
:1007D80006F0004646EA010140EA020081EA030108
:1007E800B4EB5C04C2BFD4EB0C0541EA045170BD04
:1007F80041F480114FF0000E013C00F3AB8014F17E
:10080800360FDEBF002001F0004170BDC4F10004C6
:10081800203C35DA0C341BDC04F11404C4F1200547
:1008280000FA05F320FA04F001FA05F240EA0200A2
:1008380001F0004221F0004110EBD37021FA04F6D8
:1008480042EB06015EEA430E08BF20EAD37070BD92
:10085800C4F10C04C4F1200500FA04F320FA05F0F1
:1008680001FA04F240EA020001F0004110EBD370F3
:1008780041F100015EEA430E08BF20EAD37070BD63
:10088800C4F1200500FA05F24EEA020E20FA04F33C
:1008980001FA05F243EA020321FA04F001F00041EB
:1008A80021FA04F220EA020000EBD3705EEA430E5C
:1008B80008BF20EAD37070BD94F0000F0FD101F08B
:1008C8000046400041EB010111F4801F08BF013CC4
:1008D800F7D041EA060195F0000F18BF704703F002
:1008E8000046520043EB030313F4801F08BF013D89
:1008F800F7D043EA0603704794EA0C0F0CEA135545
:1009080018BF95EA0C0F0CD050EA410618BF52EAFE
:100918004306D1D181EA030101F000414FF0000004
:1009280070BD50EA410606BF1046194652EA430612
:1009380019D094EA0C0F02D150EA013613D195EA86
:100948000C0F05D152EA03361CBF104619460AD1CE
:1009580081EA030101F0004141F0FE4141F47001D8
:100968004FF0000070BD41F0FE4141F4780170BDC8
:1009780070B54FF0FF0C4CF4E06C1CEA11541DBF2D
:100988001CEA135594EA0C0F95EA0C0F00F0A7F82F
:10099800A4EB050481EA030E52EA03354FEA01315C
:1009A80000F088804FEA03334FF0805545EA13136F
:1009B80043EA12634FEA022245EA111545EA106537
:1009C8004FEA00260EF000419D4208BF964244F1CE
:1009D800FD0404F5407402D25B084FEA3202B61AED
:1009E80065EB03055B084FEA32024FF480104FF4C1
:1009F800002CB6EB020E75EB030E22BFB61A754635
:100A080040EA0C005B084FEA3202B6EB020E75EBC7
:100A1800030E22BFB61A754640EA5C005B084FEA2F
:100A28003202B6EB020E75EB030E22BFB61A7546FC
:100A380040EA9C005B084FEA3202B6EB020E75EB07
:100A4800030E22BFB61A754640EADC0055EA060EC8
:100A580018D04FEA051545EA16754FEA06164FEA0B
:100A6800C30343EA52734FEAC2025FEA1C1CC0D1B7
:100A780011F4801F0BD141EA00014FF000004FF044
:100A8800004CB6E711F4801F04BF01430020B4F105
:100A9800FD0C88BFBCF5E06F3FF6AFAEB5EB030CBD
:100AA80004BFB6EB020C5FEA500C50F1000041EBBA
:100AB800045170BD0EF0004E4EEA113114EB5C0487
:100AC800C2BFD4EB0C0541EA045170BD41F480115A
:100AD8004FF0000E013C90E645EA060E8DE60CEA62
:100AE800135594EA0C0F08BF95EA0C0F3FF43BAF7F
:100AF80094EA0C0F0AD150EA01347FF434AF95EA36
:100B08000C0F7FF425AF104619462CE795EA0C0F19
:100B180006D152EA03353FF4FDAE1046194622E7E6
:100B280050EA410618BF52EA43067FF4C5AE50EAC0
:100B380041047FF40DAF52EA43057FF4EBAE12E7B0
:100B48004FF0FF3C06E000BF4FF0010C02E000BF91
:100B58004FF0010C4DF804CD4FEA410C7FEA6C5C74
:100B68004FEA430C18BF7FEA6C5C1BD001B050EA17
:100B7800410C0CBF52EA430C91EA030F02BF90EA02
:100B8800020F0020704710F1000F91EA030F58BFC1
:100B9800994208BF90422CBFD8176FEAE37040F023
:100BA800010070474FEA410C7FEA6C5C02D150EAC1
:100BB800013C07D14FEA430C7FEA6C5CD6D152EA7C
:100BC800033CD3D05DF8040B704700BF8446104641
:100BD80062468C461946634600E000BF01B5FFF740
:100BE800B7FF002848BF10F1000F01BD4DF808ED10
:100BF800FFF7F4FF0CBF012000205DF808FB00BFE1
:100C08004DF808EDFFF7EAFF34BF012000205DF83A
:100C180008FB00BF4DF808EDFFF7E0FF94BF012087
:100C280000205DF808FB00BF4DF808EDFFF7CEFF88
:100C380094BF012000205DF808FB00BF4DF808EDC7
:100C4800FFF7C4FF34BF012000205DF808FB00BF98
:100C58004FEA410C7FEA6C5C02D150EA013C0AD1B0
:100C68004FEA430C7FEA6C5C02D152EA033C02D1A2
:100C78004FF0000070474FF0010070474FEA410203
:100C880012F5001215D211D56FF47873B3EB6252D6
:100C980012D94FEAC12343F0004343EA505311F0FD
:100CA800004F23FA02F018BF404270474FF000008F
:100CB800704750EA013005D111F0004008BF6FF0CD
:100CC800004070474FF00000704700BF4A0011D243
:100CD80012F5001211D20DD56FF47873B3EB62528E
:100CE8000ED44FEAC12343F0004343EA505323FA9A
:100CF80002F070474FF00000704750EA013002D10F
:100D08004FF0FF3070474FF0000070474FEA410244
:100D1800B2F1E04324BFB3F5001CDCF1FE5C0DD951
:100D280001F0004C4FEAC0024CEA5070B2F1004F9B
:100D380040EB830008BF20F00100704711F0804F9E
:100D480021D113F13872BCBF01F00040704741F463
:100D580080114FEA5252C2F11802C2F1200C10FA67
:100D68000CF320FA02F018BF40F001004FEAC1234B
:100D78004FEAD32303FA0CFC40EA0C0023FA02F3EF
:100D88004FEA4303CCE77FEA625307D150EA0133C5
:100D98001EBF4FF0FE4040F44000704701F0004095
:100DA80040F0FE4040F40000704700BF53B94AB914
:100DB800002908BF00281CBF4FF0FF314FF0FF305B
:100DC80000F072B9ADF1080C6DE904CE00F006F838
:100DD800DDF804E0DDE9022304B070472DE9F047AF
:100DE800089E04468846002B4BD18A42154667D98F
:100DF800B2FA82F24AB1C2F1200701FA02F320FAEC
:100E080007F7954047EA030894404FEA154E230C2C
:100E1800B8FBFEF71FFA85FC0EFB178843EA084368
:100E280007FB0CF1994209D9EB1807F1FF3080F064
:100E38001B81994240F21881023F2B445B1AA4B2ED
:100E4800B3FBFEF00EFB103344EA034400FB0CFC3A
:100E5800A44509D92C1900F1FF3380F00781A44576
:100E680040F2048102382C4440EA0740A4EB0C0409
:100E780000271EB1D4400023C6E900433946BDE827
:100E8800F0878B4209D9002E00F0EB800027C6E9D5
:100E9800000138463946BDE8F087B3FA83F7002FDA
:100EA80047D18B4202D3824200F2FA80841A61EB66
:100EB800030301209846002EE0D0C6E90048DDE78C
:100EC80002B9FFDEB2FA82F2002A40F08F80491B95
:100ED8004FEA154E1FFA85F80127B1FBFEFC230CDB
:100EE8000EFB1C1143EA014308FB0CF1994207D998
:100EF800EB180CF1FF3002D2994200F2CD80844603
:100F0800591AA3B2B1FBFEF00EFB101443EA0444D5
:100F180008FB00F8A04507D92C1900F1FF3302D2CD
:100F2800A04500F2B6801846A4EB080440EA0C403D
:100F38009FE7C7F1200CBB4022FA0CFE4EEA030ED5
:100F480001FA07F420FA0CF521FA0CF34FEA1E48CF
:100F58002543B3FBF8F92C0C08FB19331FFA8EFA5A
:100F680044EA034309FB0AF49C4202FA07F200FA36
:100F780007F10BD91EEB030309F1FF3080F08780DE
:100F88009C4240F28480A9F1020973441B1BADB254
:100F9800B3FBF8F008FB103345EA034400FB0AFAF8
:100FA800A24508D91EEB040400F1FF336BD2A24519
:100FB80069D90238744440EA0940A0FB0289A4EBCD
:100FC8000A044C45C2464B4654D351D0002E69D032
:100FD800B1EB0A0564EB030404FA0CFCFD40FC4089
:100FE8004CEA0505C6E90054002747E7C2F120038B
:100FF80020FA03F7954001FA02F021FA03F34FEAC9
:10100800154E3843010CB3FBFEF71FFA85F80EFBAB
:10101800173341EA034107FB08F38B4204FA02F451
:1010280007D9691807F1FF3C2FD28B422DD9023F0F
:101038002944CB1A81B2B3FBFEF00EFB103341EA10
:10104800034100FB08F38B4207D9691800F1FF3C04
:1010580017D28B4215D902382944C91A40EA0747E2
:101068003BE73746304609E70746E7E61846FBE61A
:101078004145ABD2B8EB020A69EB0E0201381346C0
:10108800A4E76046E9E7184695E76746D1E7814651
:101098007CE702382C4447E7ACF1020C2B442FE7DD
:1010A800384608E73746E9E6704700BF37B5484A8B
:1010B800136B43F001031363464B196821F4404155
:1010C8001960196841F480411960596821F080015C
:1010D800596059685960D96821F44041D960D96884
:1010E800D960996821F440419960996841F40041B8
:1010F8009960116B41F001011163196821F4406195
:101108001960196841F400611960596821F02001DB
:101118005960D96821F44061D960D968D960996863
:1011280021F440619960996841F400619960196AF5
:1011380021F470011962196A41F4A0011962116B56
:1011480041F0010111631A6822F440521A601A68CA
:1011580042F400521A605A6822F040025A60DA6873
:1011680022F44052DA60DA68DA609A6822F440526F
:101178009A609A6842F400529A601A6A22F0706281
:101188001A621A6A42F0A0621A6280229A61124BAD
:1011980000240546CDE9003422462346214601F0C5
:1011A8001FFC2B681A6842F480621A605A6842F081
:1011B80001025A6009212346084A082004F06AFE01
:1011C8000368074AA8609A60064A1A6003B030BDEF
:1011D8000038024000000240009F240089120008E5
:1011E8000C300140100401060B4BDB6883681B6858
:1011F800021DDA6003225A60084A1A601A6842F02F
:1012080001021A60064B4FF400029A6102681368E3
:1012180043F040031360704700300140100401069A
:101228000000024038B50446202383F3118803F0F8
:10123800CBF92268136823F0400313600F4B802218
:101248009A61A26811680B6823F01F030B600D6890
:1012580015F00105FBD15168527A3D2393400B608C
:1012680063681BBAC3F38F236360E36000F088FAF6
:1012780003F0BCF985F3118838BD00BF00000240B7
:101288000148FFF7CFBF00BFFC090020014B024A0D
:101298001A607047FC090020003001400368197388
:1012A80003689A68D207FCD5187B7047404A136BCD
:1012B80043F0020313B513633E4B196821F04071E4
:1012C8001960196841F080711960596821F48051DA
:1012D800596059685960D96821F04071D960D96856
:1012E800D960996821F040719960996841F000715E
:1012F8009960116B41F002011163196821F0406196
:101308001960196841F000611960596821F40051A9
:101318005960D96821F04061D960D968D960996865
:1013280021F040619960996841F000619960596ABB
:1013380021F470015962596A41F4A0015962116B94
:1013480041F0020111631A6822F040421A601A68DB
:1013580042F000421A605A6822F400425A60DA6881
:1013680022F04042DA60DA68DA609A6822F0404295
:101378009A609A6842F000429A605A6A22F0704273
:101388005A625A6A42F0A0425A624FF480529A61F5
:10139800094B00220446CDE900321146012301F031
:1013A8001FFB2268136843F04003136002B010BDAE
:1013B800003802400004024080C3C90170B50A4CDD
:1013C8004FF08053A36105460E460021FFF766FFE4
:1013D800310A2846FFF762FFF1B22846FFF75EFFA1
:1013E8004FF48053A36170BD00040240014B024AD0
:1013F8001A6070470C0A00200038004000F108030A
:101408000022583043F8042B8342FBD1704700F187
:1014180008030022303043F8042B83425A62FAD181
:1014280070470023836003617047000008B503F02C
:10143800B9F8084B1A689A4207D09B69996893686B
:10144800994202D2044803F073FB002383F3118806
:1014580008BD00BFF0270020D881000870B52DED29
:10146800028B037982B0054607EE901A002B45D00F
:10147800846D9FED238AF8EEE77A661E00EB8404FC
:10148800C0ED027A0434F7EE008A002E23DD94EDD5
:10149800007AD4ED157AA7EE278A04F0D9FEB4EEC7
:1014A800408AF1EE10FA08D104F0D2FE38EEC08A74
:1014B80054F8043D6360013EE7E704F0C9FEB1EE6D
:1014C800400AB4EE408AF1EE10FAF1D104F0C0FE01
:1014D80030EE688AECE7D5ED177A95ED027AB0EE32
:1014E800480AA7EE270A04F0B9FEFDEEC07ACDED52
:1014F800017A019802B0BDEC028B70BD0193F8E748
:1015080000000000D0ED007A9FED167AF4EEC77A5D
:10151800F1EE10FA10DDDFED146AF4EEE67AF1EE82
:1015280010FA02DD114B0360704777EEC77A77EE49
:10153800C77AC0ED007A7047DFED0D6AF4EEE67AFF
:10154800F1EE10FAF7D5DFED0B6AF4EEE67AF1EE7C
:1015580010FA02D580ED007A704777EE877A77EE39
:10156800877AE6E7286BEE4EFFFF7F7F286BEECE8B
:10157800286BEECEFFFF7FFF037937B507EE901A91
:101588000246002B5CD0C16DF8EEE77A00234D1EB1
:101598008365C0ED027A00EB810100F15804002D4B
:1015A800D2ED167AA1F104010EDDD1ED026A91EDBA
:1015B800197AE6EE877A2046013DC2ED167A4B6825
:1015C8008B60FFF79FFFEAE7D2ED026A92ED197A86
:1015D800E6EE877A2046C2ED167AFFF793FF116E82
:1015E8004D1E02EB8101002DD2ED167AA1F1040106
:1015F8000EDDD1ED0C6A91ED237AE6EE877A20466E
:10160800013DC2ED167ACB6A0B63FFF77BFFEAE771
:10161800D2ED0C6A92ED237AE6EE877A2046C2ED87
:10162800167AFFF76FFF92ED160A82ED0C0A04F0A6
:1016380015FEFDEEC07ACDED017A019803B030BDFC
:101648000193FAE710B506490446002005F010FD9D
:1016580020600378002B0CBF0B20002010BD00BFBA
:10166800CC810008037907B500EE101A5BB3F8EED9
:10167800C07A90ED020AD0ED035A90ED047AD0EDCD
:10168800054A37EEC06AF0EE676AE5EE866AA5EEAF
:10169800860A36EEC75A30EE270AE4EE856AA4EECB
:1016A800857AF6EE007A20EE270AC0ED046A80ED0E
:1016B800027A04F0D3FDFDEEC07ACDED017A0198EF
:1016C80003B05DF804FB0193F9E70269036803EBD3
:1016D80082031963704708B500212C30FFF7F5FF26
:1016E80008BD000003680A465B680149184700BF47
:1016F800CF8100080368002202711B6818470000A8
:1017080084B0F8B507AC054684E80E002C22002109
:1017180004F0D5FD4FF0FF332B62104B2B60099B73
:10172800EB620FCC002705F1300685F8247085F8A8
:10173800257085F8267085F8277085F829700FC6FA
:1017480094E803000D9B86E80300284685F8487056
:10175800EB64BDE8F84004B0704700BFA8810008FA
:1017680038B500F12C040546204600F021FEE96C4E
:10177800204600F097FF00212046FFF7A6FF38BD5E
:10178800114B12484FF0807210B59A61104B114AF4
:101798001B88D268104C1340026842F20F71514303
:1017A80042F2107291FBF2F1226823609A1A0B4BF5
:1017B80011440160186803685B689847084B00F596
:1017C8000040186010BD00BF00000240681E0020E5
:1017D80004080020FC090020641E002000080020E6
:1017E800601E002008B502F013FF202383F3118840
:1017F80002F0EAFE0F4B1A69D20710D51A690E4893
:1018080022F001021A6103F5FA334FF480729A61EB
:10181800FFF7EAFC094B0A481988FFF7CFFD02F0E9
:10182800E5FE002383F3118802F00AFFBDE80840B3
:1018380003F0E4BB000C0040FC090020601E0020FF
:101848000C0A00202DE9F0410446051D40F2E73658
:1018580042F210700027E0FB016700234FF47A7210
:1018680030463946FFF7A2FA064602F001FF23691F
:1018780013B1284603F06EFB234631462846024A38
:10188800BDE8F04103F010BBC921000838B5C269B2
:1018980090F8483051798B4204462AD0D2F801504A
:1018A8002C304DB9FFF711FFE3695A7984F84820C5
:1018B8000633E361002018E08B4217D2013384F825
:1018C800483094F84810FFF700FFE36994F848207F
:1018D80059799142ECD0D3F8011004322046B1FB7B
:1018E800F2F10131FFF7AEFF012038BDE9D9013B24
:1018F800E5E70632C261DDE773B5054670300E468E
:10190800FFF7A0FE044640B9024601A9286F05F07A
:101918007FFC019B1B781BB93060204602B070BD6C
:101928000D24FAE738B504460D4602F0A1FED4F8B6
:10193800AC30002B1EDD02F09BFED4F8AC30013B2E
:10194800C4F8AC30D4F8943003F10802C4F89420F9
:101958002A681A606A685A60D4F8942004F19003DF
:101968009A4204F1980028BFC4F8944003F070F834
:10197800002038BD0220FCE738B5044602F078FEA6
:10198800236933B102F074FE236913B1201D03F0FB
:10199800E1FA4FF0FF35E3691A78042AFDD8DFE849
:1019A80002F0030A14253100236820469B689847F3
:1019B8000128F0D138BDD3F801100633E3610029BE
:1019C800E9D02046FFF73EFFF4E7D3F80130A269DB
:1019D800062101FB0323E36194F8293023B104F1C4
:1019E80024011148FFF79EFF0121EAE794F8293006
:1019F80023B104F124010C48FFF794FF0023C4E944
:101A08000633D7E7226A013204BFD3F801202262E5
:101A1800226A1AB906332562E361BCE7A369E36168
:101A2800013A2262B7E700BF100A00208FB54021B3
:101A3800A14FA248A24DDFF8F08200F03DFF9F4879
:101A480000F092FD01F07CFD03F02AF8122107F165
:101A5800A400C7E9247702F0B7FF002107F1980036
:101A680002F0B2FF974801F03BFC974A9749984823
:101A780001F0FEF9914800F00BFF9648FFF770FE61
:101A88009548FFF76DFE9548FFF76AFE2A219448AE
:101A9800FFF71BFE934A9448136B43F0010313634B
:101AA800924B1A6822F440321A601A6842F4803263
:101AB8001A605A6822F480725A605A685A60DA6862
:101AC80022F44032DA60DA68DA609A6822F4403246
:101AD8009A609A6842F400329A60FFF7E7FA8448FD
:101AE800FFF7E4FB284600F097FB42F21071284606
:101AF80000F0EEFD0921322002F020FD2B687D4820
:101B0800DA6842F00102DA601A6842F001021A60EB
:101B180004F05CFA41F2185003F08BF9754804F0B0
:101B2800C9FA07F1980900248DF80D40202383F3A2
:101B3800118802F027FD4FF0FF31484602F054FFAC
:101B480090B9D7F890306C481C6803F10802C7F8C0
:101B580090205B680393694B9A4228BFC7F890703E
:101B680002F076FF02F01AFFFFF760FC9DF80D50B7
:101B7800012D07D0052D00F066812946604801F047
:101B880077F9D0E7202383F3118802F0FBFC534850
:101B98004FF0FF3303625B4BC0E90633FFF7ECFEFF
:101BA800FFF744FC5849206F00F01BFB014618B9A9
:101BB8002046FFF797FD0BE15449206F261D00F0E2
:101BC80010FB60B901A93046FFF796FE05460028CC
:101BD8005AD101993A4800F07BFD2946E8E74C497B
:101BE800206F00F0FEFA98B901A93046FFF784FE8D
:101BF8000146002848D1019B5A1E0F2A5AD84FF691
:101C0800FF72C3F1100302FA03F3424A1380CFE7CD
:101C18004149206F00F0E5FA014618B9D8F80030BC
:101C28001D71C5E73D49206F00F0DBFA054620B974
:101C3800D8F80000FFF75EFDCFE73949206F00F0C4
:101C4800D0FA0646002871D1364DD8F80000FFF7C3
:101C580051FD2846FFF7D2FBAE6505F15C0305F19F
:101C6800AC022E46002143F8041B9A42FBD104F132
:101C7800740A5046FFF7E6FC40B9B16D132905DC3C
:101C8800606F0378612B0AD0052191E70021204677
:101C9800FFF728FDC8F8006001232B7198E0173181
:101CA80006EB8101013000F027FC18B9B36D013350
:101CB800B365DEE707217BE7100A00206C1E0020D1
:101CC800280D00202C0D0020E4810008EF81000879
:101CD800FC810008700C0020C00C0020200C0020A3
:101CE8009C0C002000380240FC0900200000024043
:101CF8000C0A00207C250020B40A0020A00A00203D
:101D080056820008B481000804820008098200088D
:101D18001582000804080020238200082982000890
:101D28002E820008C00A0020000800204A49206FBF
:101D380000F057FA054600284FD1484ED8F8000061
:101D4800FFF7D8FC3046FFF762FBC6E9175506F1E6
:101D5800640306F18C013546002243F8042B9942AE
:101D68005A62FAD104F1740A5046FFF76BFC38BB8B
:101D7800606F0378612B0FD1E96D092984DC193173
:101D880005EB8101013000F0B7FB00287FF47CAF40
:101D9800EB6D0133EB65E7E7622B7FF475AF296ED6
:101DA80009293FF771AF233105EB8101013000F0BC
:101DB800A3FB00287FF468AF2B6E01332B66D3E7B3
:101DC80000212046FFF78EFC0123C8F8005033712C
:101DD800236820461B689847A5E62149206F00F034
:101DE80000FA70BBD8F800001E4DFFF783FC04F121
:101DF80074060023AB602B613046FFF723FC0028F4
:101E08007FF442AF6946606F00F076FB00287FF4EC
:101E18003BAF3046FFF716FC00287FF435AF01A929
:101E2800606F00F069FB014600287FF42DAF204663
:101E3800FFF758FC019BEB60009B6B61C8F80050F2
:101E48002AE70621B4E6084801F012F8FF210748FE
:101E5800FFF73BFC67E600BF378200086C0B0020E9
:101E680040820008100D00204B820008EC0C002076
:101E7800734B744A002000212DE9F04FC3E900019B
:101E8800C3E924334FF4E133136003F18043A3F52E
:101E98003243536003F570439360136109210A23A9
:101EA800918193820F210D23C2E90613664B1362B9
:101EB80003F58033B0335362644BDFF8C4A1DA60B2
:101EC80041F2100103F110025A5041F214010127A6
:101ED8005A5041F2180200249F5441F21C0241F268
:101EE80090019C5003F581528BB0146041F224029A
:101EF800DFF890B19C5041F228024FF0FF099C5046
:101F080041F28F024FF0FF389F5441F2FC0207AEB6
:101F18009C5003F58852CDF810B0147041F20412A9
:101F280004AD9C5041F208129C50494A1A6002F1D3
:101F38002000585041F2940130325A500623ADF82F
:101F48001430CDE906A78DF820408DF82140CDF852
:101F58000C80CDF8249096E807008DE807003D48EE
:101F680095E80E00FFF7CCFB0723ADF814300223E9
:101F780007938DF820408DF82140CDF80C80CDF8DE
:101F8800249096E807008DE80700CDF810B0CDF84A
:101F980018A095E80E003048FFF7B2FB0823ADF80B
:101FA8001430032307938DF820408DF82140CDF895
:101FB8000C80CDF8249096E807008DE80700CDF84E
:101FC80010B0CDF818A095E80E002448FFF798FB4C
:101FD800234B244A1A60244B244A1A6000201F719C
:101FE8009F6503F1080103F15804024641F8040B08
:101FF800A1420865FAD14FF07E50D8651C4B1D4CA4
:102008001C6001211971D9650021196603F130049A
:1020180003F1080141F8042BA1424A628A65C1F81C
:102028008020F7D15866144B0121197113491960A2
:102038009A60DA601A615A610BB0BDE8F08F00BF90
:10204800100A0020381E0020500400082C0D002023
:10205800E4820008700C0020C00C0020200C002036
:10206800280D0020000C0040C00A002078810008DC
:102078006C0B002088810008100D00209881000852
:102088000008004000040240044B054A9B68506861
:10209800C3F38223032B88BF4000704700380240F7
:1020A8006C1E0020F0B53D4CA0423BD13C4D2C6B42
:1020B80044F001042C634E0003240568B440E44353
:1020C8002540056007680225B5403D4305600125A8
:1020D8008D40002A5ED1426822EA05054560C26843
:1020E8002240C260C268C2608268144084609DF861
:1020F80014208468B2402243072982608CBF0122E1
:10210800002200EB820088BF0839026A89000F2488
:102118008C4022EA04020262026A03FA01F11143C6
:102128000162F0BD1F4CA04204D11D4D2C6B44F040
:102138000204BFE71C4CA04204D1194D2C6B44F09B
:102148000404B7E7194CA04204D1154D2C6B44F098
:102158000804AFE7164CA04204D1114D2C6B44F093
:102168001004A7E7134CA04204D10D4D2C6B44F08A
:1021780020049FE7104CA04204D1094D2C6B44F079
:10218800400497E70D4CA04295D1054D2C6B44F0C7
:1021980080048FE742681543A0E700BF00000240B3
:1021A800003802400004024000080240000C0240CF
:1021B800001002400014024000180240001C0240B7
:1021C80010B52023044683F3118802F0FDF9236833
:1021D80020461B68984702F009FA002383F3118808
:1021E80010BD884230B515D0421E12F8014FA4F137
:1021F8004100192811F8010BA0F14105234698BFA9
:1022080004F12003192D98BF2030181A01D1002C91
:10221800EBD130BD0020FCE70368574A93420AD14E
:10222800564B5A6C42F001025A645A6E22F001026F
:102238005A665B6E7047B3F1804F0BD103F50E33CE
:102248001A6C42F001021A641A6E22F001021A6630
:102258001B6E70474A4A934208D1484B1A6C42F0A9
:1022680002021A641A6E22F00202F0E7454A93420B
:1022780008D1424B1A6C42F004021A641A6E22F01A
:102288000402E4E7404A934208D13C4B1A6C42F0FE
:1022980008021A641A6E22F00802D8E73B4A9342F1
:1022A80008D1364B1A6C42F010021A641A6E22F0EA
:1022B8001002CCE7364A934208D1304B1A6C42F0F0
:1022C80020021A641A6E22F02002C0E7314A9342B3
:1022D80008D12A4B5A6C42F002025A645A6E22F014
:1022E8000202A5E72C4A934208D1244B5A6C42F4C7
:1022F80080325A645A6E22F4803299E7274A934210
:1023080008D11E4B5A6C42F400325A645A6E22F4B9
:1023180000328DE7224A934208D1184B5A6C42F496
:1023280080225A645A6E22F4802281E71D4A934221
:1023380008D1124B1A6C42F040021A641A6E22F04D
:10234800400284E7184A934208D10C4B1A6C42F0B9
:1023580080021A641A6E22F0800278E7134A9342C8
:102368007FF477AF054B1A6C42F480721A641A6EC8
:1023780022F480726BE700BF000001400038024081
:102388000004004000080040000C0040001000401D
:102398000014004000040140004001400044014096
:1023A8000048014000180040001C00400020004088
:1023B80013B50446FFF730FF036801694FF4404244
:1023C8005A648269DA62027D0139012A0CBF072248
:1023D800062203290BD8DFE801F0021E262E996990
:1023E80041EA02129A611A6A42F001021A621A68F4
:1023F80042F001021A602F4A934202D0B3F1804F93
:1024080021D10223627D2189009301236068FFF7AF
:1024180049FE02B010BD996941EA02329A611A6A0E
:1024280042F01002E2E7D96941EA0212DA611A6A57
:1024380042F48072DAE7D96941EA0232DA611A6A4B
:1024480042F48052D2E71C4A934207D002F58062D8
:10245800934203D002F58062934204D10223627D45
:1024680021890093D2E7154A93420BD002F57052A6
:10247800934207D002F58062934203D002F580624E
:10248800934205D102230093627D21890323BDE78E
:102498000B4A934207D002F58062934203D002F5BB
:1024A80080629342B5D102230093627D218909237A
:1024B800ACE700BF000001400004004000040140F8
:1024C80000180040074B5A6922F080025A6101380F
:1024D80010F8012F22B119680906FCD55A60F7E7F0
:1024E800704700BF0010014008B50248FFF7EAFF37
:1024F80001BEFEE76882000813B503780C4663B195
:1025080001A904F061FD019B84ED000A1B78002BF2
:102518000CBF00200D2002B010BD0B20FBE700000F
:10252800074B1A6842F480321A6042F20F72196837
:10253800890303D4013AFAD102207047002070477A
:1025480000380240074B1A6842F080721A6042F263
:102558000F721968890103D4013AFAD10220704731
:102568000020704700380240F0B5044635488368BB
:1025780003F00C03042B87B062D0082B46D0324BF3
:10258800324A02AE02F1100710685168354603C599
:102598000832BA422E46F7D12A498A6806A8C2F3F9
:1025A80003120244002512F8102CD340284A236055
:1025B800CDE900528A68C2F38222024412F8182C2C
:1025C80023FA02F262608A68C2F3423202444FF090
:1025D800804112F8182CD340A3600B6823F0010344
:1025E8000B60FFF751FD42F210730122B0FBF3F0CC
:1025F80001384B6A88624A6100BF00BF00BF00BF54
:102608004B620B6813430B6007B0F0BD4568436825
:10261800426841680C48C2F3014211F4800FC3F3C9
:10262800881302F101020B4905F03F054FEA420207
:1026380008BF0146B1FBF5F14B43B3FBF2F39FE74B
:10264800044B9DE7003802400024F4006081000834
:1026580001020304001BB7000F4B99420FD003F58A
:10266800806399420BD003F57053994207D003F564
:102678008063994203D003F58063994209D1074BDF
:10268800074A9B689068C3F34233032B03D9400081
:102698007047FFF7F9BC704700000140003802405E
:1026A8006C1E002038B504460D4601680748FFF740
:1026B800D3FF2268D36A0133B0FBF3F0B0FBF5F027
:1026C80000B1013800239062536238BD6C1E0020AF
:1026D80038B505460C4601680548FFF7BDFF2B686D
:1026E800B0FBF4F001220138D8625A6138BD00BF4E
:1026F8006C1E00200F4B99420FD003F5806399425E
:102708000BD003F57053994207D003F580639942C3
:1027180003D003F58063994209D1074B074A9B68A8
:102728009068C3F34233032B03D940007047FFF787
:10273800ABBC704700000140003802406C1E00200E
:1027480010B5074CA06820F47C4020F0F00040EA67
:10275800433343EA822343EA0113A36010BD00BF59
:102768000038024010B50446FFF7DAFE90B920465B
:10277800FFF7E8FE80B9094B9A6822F003029A60D5
:102788009A6842F002029A609A6802F00C02082ADB
:10279800FAD110BD0120FCE70220FAE70038024018
:1027A8003A4B186810B5A2F68D2420F00F00B4F546
:1027B800617F40F4C0631CD21E2916D93C2902D877
:1027C80043F0010311E05A2904D840F4C06343F0F0
:1027D80002030AE0782902D840F4C0631CE0962975
:1027E80040F4C06331D843F00403284A0020136042
:1027F80010BD6FF416641419B4F5967F0FD218291A
:10280800F3D9302902D840F4C063D9E74829DCD984
:10281800602940F4C063E6D843F00303E5E7A2F675
:102828003504B4F5967F13D21229DED92429EAD9C2
:102838003629CAD94829CFD95A2902D840F4C063C1
:10284800D1E76C2940F4C06317D843F00503CCE7FF
:10285800A2F27362B2F5E17F15D21029C5D92029F9
:10286800D1D93029B1D94029B6D95029E6D960291A
:1028780040F4C063E9D9702902D843F00603B4E7ED
:1028880043F00703B1E70120B2E700BF003C024074
:10289800064807498368B3FBF1F3D0E90002B2FBAD
:1028A800F1F2B0FBF1F1034800F0E2BA6C1E00202F
:1028B80040420F0074820008364A13680F2943F417
:1028C800807370B504460E46136062D9FFF728FE80
:1028D80000285ED1304D2B68302E23F080732B609A
:1028E80036D00DD8102E18D0182E28D02046FFF735
:1028F80029FE00284DD12046BDE87040FFF732BFC1
:10290800402E34D0482EF1D1296811F0807140D181
:10291800224B6B600522042322E02B6813F080739E
:1029280037D11F4A6A6009211A462046FFF708FF77
:1029380040F6E44231462046FFF732FFD6E72B68DF
:1029480013F0807325D1174A6A6008211A46ECE70C
:10295800296811F080711CD1124B6B6004231A4650
:102968002046FFF7EDFE40F6E4423021E3E731462A
:1029780040F6E4422046FFF713FF296811F0807102
:1029880007D1074B6B6004231A462046FFF7D8FE91
:10299800ACE770BD003C0240003802400C484106DC
:1029A80006304208063043080B4B4FF080521A6439
:1029B8000A4A002111601A6842F001021A601A6876
:1029C8009207FCD55A6C42F480425A645A6E42F41B
:1029D80080425A665B6E70470038024000700040C3
:1029E80070B50068394D049CA84246D105F5843578
:1029F8006E6C46F480566E646E6E26F480566E6673
:102A08006D6E4FF441750560012902BF016841F000
:102A180080010160012A02BF026842F002020260DE
:102A2800012B02BF036843F001030360274B984260
:102A3800274B0CBF9B685B68B3FBF4F37F2B38DC38
:102A48003F2B38DC1F2B38DC0F2B38DC072B38DC0E
:102A5800032B38DC012BD4BF00230123026842EA90
:102A6800C30303609DF81430012B02BF036843F4CD
:102A7800006303600023436070BD164DA8420BD16C
:102A880005F500352E6C46F480462E642E6E26F42D
:102A980080462E662D6EB4E70F4DA842B1D105F5DC
:102AA800FE352E6C46F400462E642E6E26F4004643
:102AB800EFE70723D2E70623D0E70523CEE7042371
:102AC800CCE70323CAE70223C8E700BF0030014070
:102AD8006C1E002000380040003C004008B501F0A2
:102AE80097FD202383F3118801F06EFD094B9B6845
:102AF800DB0703D5084B1B6803B1984701F076FD47
:102B0800002383F3118801F09BFDBDE8084002F023
:102B180075BA00BF00300140781E002008B501F0EA
:102B280077FD202383F3118801F04EFD094B9B6844
:102B3800DB0703D5084B1B6803B1984701F056FD26
:102B4800002383F3118801F07BFDBDE8084002F003
:102B580055BA00BF003800407C1E002008B501F0BF
:102B680057FD202383F3118801F02EFD094B9B6844
:102B7800DB0703D5084B1B6803B1984701F036FD06
:102B8800002383F3118801F05BFDBDE8084002F0E3
:102B980035BA00BF003C0040801E002008B501F097
:102BA80001FD084B1A689A4207D09B699968936897
:102BB800994202D2044801F0BBFF002383F3118835
:102BC80008BD00BFF0270020C88200082DE9F043A7
:102BD80085B005469DF830909846002401AEB1FBBB
:102BE800F2F302FB1317F8B2092F04F1010494BFA2
:102BF800303037303719C0B2194607F8010C002BAE
:102C0800EDD127462B6847451B680BD24946284615
:102C1800984718B10C2005B0BDE8F0830137F1E7FB
:102C2800002CF8D0013C2B68315D1B68284698477A
:102C38000028F5D0EEE700002DE9F04F2DED028BCE
:102C4800054685B00B4614464FF00A0819785E1CF5
:102C580041B92B685B68284605B0BDEC028BBDE81E
:102C6800F04F1847252904D02B6828461B68984739
:102C780096E093F80190B9F1300F0CBF9E1C4FF00D
:102C880020094FF0000A16F8011BA1F13003DBB24E
:102C9800092B03D92A2904D12378043408FB0A3ADA
:102CA800F1E72E294FF000070DD116F8011BA1F10D
:102CB8003003DBB2092B03D92A2904D12378043441
:102CC80008FB0737F1E7632978D015D8412900F0C8
:102CD800A18003D82529C7D03346B7E7532978D030
:102CE8005829F9D1271DCDF80090534610222168A4
:102CF8002846FFF76BFF67E0692978D054D8642924
:102D080075D06629E8D1073424F00703D3E9000118
:102D180003F10804FDF7FAFF08EE100AB5EEC08AC1
:102D2800F1EE10FA08D52B682D211B682846984724
:102D380000288ED1B1EE488AFDEEC88A7B1E092B89
:102D4800CDF8009053464FF00A0218EE901A284624
:102D580028BF0927FFF73AFF00287FF47AAF2B68CE
:102D68002E211B682846984700287FF472AF3F4AF7
:102D78007B1EF8EEE88A52F8233007EE903A38EED8
:102D8800688AF8EEE77A302327EE888A0093FDEE0A
:102D9800C87A3B460A2217EE901A2846FFF716FF14
:102DA80000287FF456AF97E7732912D0752993D17D
:102DB800271DCDF8009053460A2298E72B68217802
:102DC8001B682846271D984700287FF442AF3C46D9
:102DD80082E72768013F17F8011F09B904347BE728
:102DE8002B6828461B6898470028F4D031E7271D30
:102DF8002468002C08DA2B682D211B682846984780
:102E080000287FF426AF6442CDF8009053460A228A
:102E180021466DE72368D4F808900293636803930A
:102E280000275FFA89FA4FF0300B039B9F4201DBC2
:102E38000C3451E7002F0DDC029B1022D95DCDF830
:102E480000B002232846FFF7C1FE00287FF401AF37
:102E58000137EAE7B9F1000FEED02B6851461B683D
:102E6800284698470028E7D0F3E600BFA482000868
:102E78000FB413B504AB53F8044B0193202383F329
:102E8800118801F07FFB019A05482146FFF7D4FE1F
:102E9800FFF784FE02B0BDE8104004B0704700BFE1
:102EA800BC1D00200FB407B504AA054852F8041B3E
:102EB8000192FFF7C1FE03B05DF804EB04B0704760
:102EC800BC1D00207047000008B5084B084A9B69E4
:102ED800084C9A6140F2DE3001F0ABFF2068002810
:102EE800F8D003685B689847F4E700BFF027002034
:102EF800D48200084020002008B501F053FB084B9D
:102F08001A689A4207D09B6999689368994202D2D5
:102F1800044801F00DFE002383F3118808BD00BFAB
:102F2800F02700201C8300080EB403B503AA00F59F
:102F3800845052F8041B01921030FFF77DFE02B056
:102F48005DF804EB03B07047A0F58450A0F11400BD
:102F5800EAE70000F0B53F4CA0423FD13E4D2C6B54
:102F680044F001042C634E0003240568B440E44394
:102F78002540056007680225B5403D4305600125E9
:102F88008D40002A62D1426822EA05054560C26880
:102F98002240C260C56803FA06F22A43C260836809
:102FA8001C40846082680223B3401343072983606E
:102FB8008CBF0123002300EB830088BF0839036A14
:102FC80089000F228A4023EA020303629DF8143025
:102FD800026A03FA01F111430162F0BD1F4CA042DD
:102FE80004D11D4D2C6B44F00204BBE71C4CA042DD
:102FF80004D1194D2C6B44F00404B3E7194CA042DA
:1030080004D1154D2C6B44F00804ABE7164CA042D4
:1030180004D1114D2C6B44F01004A3E7134CA042CB
:1030280004D10D4D2C6B44F020049BE7104CA042BA
:1030380004D1094D2C6B44F0400493E70D4CA04299
:1030480091D1054D2C6B44F080048BE74268154301
:103058009CE700BF00000240003802400004024024
:1030680000080240000C0240001002400014024018
:1030780000180240001C024041F2100283188158D7
:1030880041F21C025B1A8258934228BF134600F58E
:10309800815210B51360ABB141F218030024C45437
:1030A80043681B68D960436812681B685A604368A4
:1030B800C2681B68126A1A6043681A68136843F08A
:1030C8000103136010BD43681A68136823F01F03D7
:1030D80030B41360436819680A68D207FCD4597A77
:1030E8005A683D238B40136041F21C0200F581535E
:1030F8001C6883581B1B835041F2100285188158A5
:103108002144A94228BF00F1100181503BB941F286
:1031180018030122C254036830BC1B68184730BC2E
:10312800FFF7AABFFFF7CFBF10B541F21C03C35882
:10313800B3F5805F15D241F21403C258541CC45031
:103148001170C15800F580521032914224BF00F12D
:103158001002C25041F21C028358013383500020F0
:1031680010BD0C20FCE7FFF7DFBFA0F58450A0F1ED
:103178001000F8E741F21803C35C0BB1FFF77CBFFE
:103188007047FFF7F7BFA0F58450A0F11000F8E7EB
:1031980010B583681B6841F228025B6804468058B2
:1031A800C3F163031B1A48BF63336BB1431CA350BD
:1031B800204441F22C03C35C0B70A358622B4FF0E0
:1031C800000000DDA05010BD0B20FCE77FB541F2E8
:1031D8008F030546C35CC3B300F5845418340DF15E
:1031E80007012846FFF7D4FF78BB94F868309DF8AC
:1031F800072063B3082A84F868006066EFD00D2AB8
:10320800636E01D00A2A2AD1002BE8D00026E654A2
:103218002449204603F02CFF41F28F02012384F851
:103228006830E0668DF80D30AE54202383F31188A2
:103238001D4C01F0A7F901F01BFAD4F8AC30B342E9
:1032480013DC01F0ABFBFFF757FE04B070BD082A92
:10325800D5D1636E002BC2D0013B6366BFE7612BFB
:10326800BDD8591C6166E254B9E701F001FAD4F8F7
:10327800AC300E48013BC4F8AC30D4F8943005F5B6
:10328800845503F108021435C4F894201D6003998D
:10329800596004F190039A4228BFC4F8944001F0A1
:1032A800D7FBCEE7CC810008100A0020A80A00202E
:1032B800C268D2E90013074A9342074A02D0074876
:1032C800834204D19268B2FBF1F29A607047526867
:1032D800F9E700BF001001406C1E002000140140F7
:1032E80013B50446C0686E4A4368934220D002F57D
:1032F800806293421CD002F5444293420CBF0823DB
:1033080007238189009300231A468068FFF722FE6D
:10331800E368644A5B6893420CD1634B5A6C42F091
:1033280010025A645A6E22F010025A665B6E0EE062
:103338000823E6E75D4A93427ED15B4B1A6C42F460
:1033480000321A641A6E22F400321A661B6E204686
:10335800FFF7AEFFE3685B6800221A61E068544A31
:1033680080692346092102F095FDE36860605B6887
:103378000268043393606368E2681B68126A1A6023
:1033880041F218030122E254E3685B680C22DA6018
:10339800E3685B68C0225A61E068414A4368934227
:1033A8007BD002F58062934277D002F54442934283
:1033B8000CBF08230723818A009301231A4600695A
:1033C800FFF7C8FDE06800231A460921C06902F02A
:1033D80061FDE368A0605B68026804339360A368DA
:1033E8001A6804F581530C33D360A3681B68632201
:1033F8005A60A368E2681B68526A1A60A3681A6870
:10340800136843F001031360E3685A68D36843F410
:103418000053D360274B1A6802B91C60264C2368F6
:1034280043B900938022254B25484FF4DC7101F005
:1034380099FC206002B010BD224A934208D11A4B71
:103448001A6C42F480221A641A6E22F480227CE7F5
:10345800134A934208D1144B1A6C42F400221A649E
:103468001A6E22F4002270E7174A934208D10E4BD5
:103478001A6C42F480121A641A6E22F4801264E7FD
:10348800124A93427FF463AF074B5A6C42F0200212
:103498005A645A6E22F0200247E708238BE700BFE0
:1034A800004C004000100140003802400044004039
:1034B8002D3100084020002044200020D12E000893
:1034C800881E0020004800400050004000140140C1
:1034D80010B52023044683F3118801F053F841F214
:1034E8008F030122E254BDE81040FFF705BDFFF746
:1034F800EFBFA0F58450A0F11400F8E770477047BB
:10350800FEE700000D4B70B503F18000002453F86E
:10351800101C53E903250439954207D853F8041CB5
:10352800914208D810338342F1D170BD51F8046F2D
:1035380042F8046BF0E742F8044BF1E738830008DF
:1035480008B501F089FD00F0F1FC00F038FBBDE89A
:10355800084000F04CBC202383F3118801F012B816
:1035680008B501F01FF8084B1A689A4207D09B6902
:1035780099689368994202D2044801F0D9FA002365
:1035880083F3118808BD00BFF0270020A883000836
:103598002DE9F041069F884615461E46044610B19F
:1035A8000AB1012B02D80D4801F0C2FA00230436F3
:1035B800E360C4E90A33079B236307FB0652089BB1
:1035C80084F80880C4E90044C4E90455C4E906261F
:1035D800C4E908756363BDE8F08100BFB4830008DF
:1035E80010B5044601F044F8626A0023E360C4E9B8
:1035F8000422C4E90A3320466FF00101BDE81040F7
:1036080001F038BC10B5044601F032F8D4E90402E0
:10361800904201D1E2680AB9043010BD0020FCE7ED
:1036280038B50D46044601F023F81DB1E369043BA3
:10363800AB4202D20F4801F07BFAD4E904239A4244
:1036480004D1E36813B10B4801F072FA23691D60D5
:10365800E2680132E260E2691344A269236193429D
:1036680024BF636A236120460021BDE8384001F089
:10367800FBBB00BFC283000838B504460D4601F005
:1036880007F8E36863B1E36813B90B4801F050FA2F
:103698006269131D1268A3621344E362002007E005
:1036A800237A33B92946204601F0CEFB0028E8DA10
:1036B80038BD6FF00100FBE7D583000810B504465C
:1036C80000F0E6FFE36813B90B4801F031FAE3684C
:1036D800E269013BE36063691344A2696361934251
:1036E80024BF636A63610023A362236B1BB1204676
:1036F800BDE81040184710BDEE83000838B50446F1
:103708000D46FFF728FFA36A4BB929462046FFF765
:10371800B3FF054618B1FFF723FF284638BDA36A53
:10372800E26A13F8015BA3629342F4D32046FFF7E1
:10373800C5FFF0E72DE9F84304460F469946904641
:1037480012B9214801F0F4F9FFF705FF0025A36A33
:103758004BB949462046FFF78FFF20B1FFF700FF1E
:103768002846BDE8F883D4E90A16731AA8EB0506BB
:103778009E4228BF1E46402E1BD93B4601F14002FF
:1037880051F8040B43F8040B9142F9D1A36A403372
:103798004037A3624035D4E90A239A4202D320462F
:1037A800FFF78CFFFFF7DCFE4545D9D2FFF7D3FEC4
:1037B800CDE73846324602F077FDA36A33443744F2
:1037C800A3623544E7E700BF058400082DE9F0410E
:1037D800069F884615461E46044610B10AB1012BBD
:1037E80002D80D4801F0A4F9043607FB0653C4E9D2
:1037F80006360023C4E90A33079B2363089B84F831
:103808000880C4E90044E760C4E90455C4E90875C0
:103818006363BDE8F08100BF1484000810B5044656
:1038280000F026FF236AE360636AC4E904330023D7
:10383800C4E90A3320466FF00101BDE8104001F0E9
:1038480019BB38B504460D4600F012FFD4E9042030
:10385800824201D1E2681AB950F8043B2B6038BDA6
:103868000020FCE710B5044600F002FFD4E9042369
:103878009A4204D1E36813B10A4801F059F9E368A0
:10388800E2690133E36063691344A26963619342A7
:1038980024BF636A636120460021BDE8104001F03F
:1038A800E3BA00BF2284000838B504460D4600F08C
:1038B800EFFEE36863B1E36813B90B4801F038F928
:1038C80023691A1DA262E2691344E362002007E03B
:1038D800237A33B92946204601F0B6FA0028E8DAF7
:1038E80038BD6FF00100FBE73984000870B50D465C
:1038F800044600F0CDFE1DB1E369043BAB4202D2A1
:103908000E4801F015F9E36813B90C4801F010F9F5
:1039180023691D60E268013AE260E2691344A26922
:103928002361934224BF636A23610023A362236B4C
:103938001BB12046BDE87040184770BD538400088D
:1039480070B504460E461546FFF705FEA36A4BB947
:1039580029462046FFF7A8FF054618B1FFF700FEE5
:10396800284670BDA36A1E70A36AE26A01339342B7
:10397800A36204D3E16920460439FFF7B7FFFFF7D4
:10398800EFFD0025ECE700002DE9F84304460D465D
:103998009946904612B9214801F0CAF8FFF7DBFDB5
:1039A8000026A36A4BB949462046FFF77DFF20B1A0
:1039B800FFF7D6FD3046BDE8F883D4E90A073B1A7D
:1039C800A8EB06079F4228BF1F46402F1BD905F1C9
:1039D800400355F8042B40F8042B9D42F9D1A36A03
:1039E8004033A3624036D4E90A239A4204D3E169FA
:1039F80020460439FFF77AFFFFF7B2FD4645D9D2D2
:103A0800FFF7A9FDCDE729463A4602F04DFCA36A27
:103A18003B443D44A3623E44E5E700BF668400089A
:103A280010B5044600F024FED4E904239A4217D1C5
:103A3800E3689BB1A36A8BB1043B9B1A0ED0136059
:103A4800E368013BE360E3691A44A36922619A428F
:103A580024BF636A23610023A3620123184610BDB3
:103A68000023FBE770B50D46044610B9064801F07F
:103A78005FF823682B43236063681BB12046BDE8C9
:103A88007040184770BD00BF8284000837B5446B8A
:103A9800D4F894341A68117804291AD1217C02299F
:103AA80017D11979128901238B40134211D101A929
:103AB80004F14C00FFF7C5FE054610B9064801F0B1
:103AC80037F8D4F89404019B017900682A4600F07D
:103AD800DDFA03B030BD00BFA08400081430FFF742
:103AE80029BE4FF0FF331430FFF724BE4C30FFF7E8
:103AF8004BBF4FF0FF334C30FFF746BF1430FFF792
:103B0800FDBD4FF0FF311430FFF7F8BD4C30FFF723
:103B180017BF4FF0FF324C30FFF712BF08B500F067
:103B280041FD084B1A689A4207D09B6999689368C7
:103B3800994202D2044800F0FBFF002383F3118866
:103B480008BD00BFF02700207684000838B50C4671
:103B5800154610B9054800F0EBFF14B1012C03D14C
:103B680015B1024800F0E4FF002038BD9B8400082E
:103B7800D0F8942438B5136819780429054601D07B
:103B8800012038BD017C0229FAD112795C89012013
:103B980090400440F4D105F11400FFF733FD0246CC
:103BA8000028EDD0D5F894544FF4807328686979CB
:103BB80000F040FA2046E4E7406BFFF7D9BF7047B2
:103BC8007FB5124B036000234360C0E9023301252F
:103BD80002260F4B057404460290019300F18402FB
:103BE800294600964FF480731430FFF7D1FC094B37
:103BF8000294CDE9006304F523724FF480732946DB
:103C080004F14C00FFF7E2FD04B070BDC084000869
:103C1800C13B0008953A000870B50D460E68044689
:103C280010B9124800F084FF202383F3118800F0B4
:103C3800A9FC237C013B012B02D90C4800F078FF3A
:103C48002B7906EB83039C616B79093346F8234093
:103C5800AB7913B106EB8306B4610223C4F894541C
:103C68002374BDE87040FFF759BF00BFA98400085E
:103C780038B5044600251430FFF7B2FC04F14C00B7
:103C88002577FFF7CBFD201D84F854500121FFF75D
:103C9800E9FE2046BDE83840FFF76ABF90F8443097
:103CA80003F06003202B07D190F84530202B03D375
:103CB800212B03D9222B09D000207047054B8363A1
:103CC8000723C36300230364012070470023C0E96E
:103CD8000E33F8E706080020D0F8943437B51A6890
:103CE8001178042904461FD1017C02291CD11979B5
:103CF800128901238B40134216D100F14C05284646
:103D0800FFF78EFE80B1284601A9FFF79AFD054608
:103D180010B9064800F00CFFD4F89404019B01790F
:103D280000682A4600F0B2F903B030BDB28400083A
:103D380000EB8103F7B59C6905460E4614B32023B2
:103D480083F3118805EB860700F03EFC201D08214F
:103D5800FFF788FEFB685B691B684C3413B120468B
:103D6800FFF780FD01A92046FFF76BFD024658B119
:103D7800019B3146284600F089F900F037FC002302
:103D880083F3118803B0F0BDFB685A691268002AF2
:103D9800F3D01B8A013B1340EFD105F14402E8E759
:103DA800093138B550F82140FCB1202383F311883C
:103DB80000F00AFCD4F894241368527903EB8203C8
:103DC800DB689B695D6845B104216018FFF74AFE0E
:103DD800294604F11400FFF723FC2046FFF7C8FE2C
:103DE80000F004FC002383F3118838BD704700F00D
:103DF80045B8000038B54FF080440546E3689B0796
:103E080002D5044800F094FE002365632361022371
:103E1800E36038BDE88400084FF080430022DA6090
:103E28007047000038B54FF080430546DA6812F055
:103E3800020F1C4602D1024800F07AFE656338BDC5
:103E4800F584000810B500F0E3FB4FF080431A69D1
:103E580092070CD500241C61202383F3118800F0FD
:103E6800B3FB00F06BFE00F0C1FB84F3118800F097
:103E7800E7FBBDE8104001F0C1B8000008B5164BDB
:103E880016481A6C42F001021A641A6E42F00102D6
:103E98001A66134A1B6E936843F0010393604FF050
:103EA8008041FEF727FC42F21073B0FBF3F04FF0AD
:103EB800804301384FF0FF329862DA6200229A613B
:103EC8005A63DA605A6001225A6102211A601C2082
:103ED800BDE8084000F032BB003802406C1E0020EC
:103EE800002004E008B500F05DFB084B1A689A4210
:103EF80007D09B6999689368994202D2044800F0F8
:103F080017FE002383F3118808BD00BFF0270020A7
:103F180000850008202383F3118800F055BB08B5FD
:103F280000F064FB002383F3118808BD01F04AB94F
:103F3800012303700023C36183620362C362436287
:103F48000363C0E90133704738B50D46044600B134
:103F580011B90F4800F0ECFD202383F3118800F01D
:103F680011FB2378013B012B02D9094800F0E0FD41
:103F78000023C4E90333C4E905336560204601F032
:103F880031F902232370BDE83840FFF7ABBF00BF0B
:103F98000C850008F8B504460E46154600F068FB87
:103FA80004B115B9114800F0C3FD2378042B02D0E1
:103FB8000E4800F0BDFD04EB8607FB6813B10B4803
:103FC80000F0B6FD6869FD6018B11022002102F00A
:103FD80076F9A86918B11022002102F070F931466B
:103FE8002046BDE8F84001F0D1B900BF15850008AA
:103FF80010B5044600F03CFB14B90D4800F098FDDC
:104008002378042B02D00A4800F092FD238903F09C
:1040180001032381638903F0010363810023C4E959
:104028000433A3612046BDE8104001F053BA00BF35
:10403800268500082DE9F04105460E4690461F46A4
:1040480000F016FB0DB1032E02D90F4800F070FDE9
:104058000124B4406B89A4B21C4202D00A4800F083
:1040680067FD6B891C4305EB86030022DB686C81C6
:104078009B693146C3F808801F6028465A60BDE82E
:10408800F04101F04FBA00BF3B8500082DE9F0412F
:1040980005460E4690461F4600F0EAFA0DB1032E7B
:1040A80002D90F4800F044FD0124B4402B89A4B282
:1040B8001C4202D00A4800F03BFD2B891C4305EB4B
:1040C80086030022DB682C815B693146C3F80880CF
:1040D8001F6028465A60BDE8F04101F0B3BA00BF3E
:1040E8004C85000870B50223002504460370C5649A
:1040F800C0E90255C0E90455856180F8345001F0E3
:10410800D7F863681B6823B129462046BDE870408C
:10411800184770BD436802781B6880F85020052254
:1041280002700BB1042118477047436890F850207B
:104138001B6802700BB105211847704790F834309E
:1041480070B5044613B1002380F8343004F14402FA
:10415800204601F0DEF963689B6863BB94F844303D
:1041680013F0600515D194F8452003F07F0343EA66
:10417800022340F20232934200F0058159D8022B03
:1041880000F0D8803DD8002B00F08480012B00F08F
:10419800CB800021204601F025FC0021204601F0BB
:1041A80017FC63681B6813B106212046984706234D
:1041B80084F8343070BD204698470028CED094F853
:1041C8004B2094F84A3043EA0223E26B9A4288BFB4
:1041D800E36394F94430E56B002B80F2F480002D02
:1041E80000F0E580092384F83430FFF793FED4E922
:1041F8000E2300212046FFF749FFBDE87040FFF776
:104208008EBEB3F5817F00F0AA80B3F5407F48D019
:10421800B3F5807FBDD194F84630012BB9D1B4F8FD
:104228004C3023F00203C4E90E55A4F84C30256441
:10423800C5E740F2016293421DD8B3F5C06F3AD288
:10424800B3F5A06FA5D1B4F84430B3F5A06F0ED183
:1042580094F8463084F84E30204601F08BF86368B5
:104268001B6813B1012120469847032323700023BC
:10427800C4E90E3313E0B3F5106F32D040F60242B2
:10428800934251D0B3F5006F83D104F14F03A36378
:10429800012324E004F14C02A2630222E2632364B6
:1042A8008DE794F84630012B7FF473AFB4F84C30A7
:1042B80043F00203B7E794F84920616894F848305E
:1042C8004E6894F8471043EA0223204694F84620A3
:1042D800B04700283FF45DAF4368A3630368E36316
:1042E800A5E72378042B0FD1FFF714FE2046FFF72C
:1042F8007FFEFFF714FE636884F84F501B680321A4
:1043080021700BB12046984794F84630002BAED068
:1043180084F84F300423237063681B68002BA6D0F1
:10432800022120469847A2E72F4BA3630223E363A9
:104338000023B4E794F848301D0603F00F01204627
:104348000AD501F0D9F8012804D002287FF421AF5A
:10435800264BEAE7264BE8E701F0C1F8F3E794F8C3
:104368004630002B7FF415AF94F8483013F00F0156
:104378003FF47DAF1A06204602D501F047FB76E7E9
:1043880001F03AFB73E794F84630002B7FF401AF55
:1043980094F8483013F00F013FF469AF1B0620462C
:1043A80002D501F01FFB62E701F012FB5FE714235F
:1043B80084F83430FFF7AEFD2B462A46002120460C
:1043C800FFF738FE19E73DB1152384F83430FFF7BD
:1043D800A1FDD4E90E23F1E70B2384F83430FFF76D
:1043E80099FD2B462A4604E779850008758500085B
:1043F8007785000838B590F834300446152B51D825
:10440800DFE803F03D50505050504050500B2938D1
:1044180050505050505050503D3D90F84B1090F82F
:104428004A20C36B42EA0122934214D2C268128A1C
:10443800B3FBF2F502FB15356DB9FFF76BFD2B46A3
:104448002A4629462046FFF721FEFFF768FD0A2382
:1044580084F8343038BD142384F83430FFF75AFD1B
:1044680000231A4619462046FFF7E4FDBDE8384008
:10447800FFF755BD036C03B198470023E8E70C48E4
:1044880000F056FB0021204601F0ACFA002120463E
:1044980001F09EFA63681B6813B10621204698470D
:1044A8000623D5E70248BDE8384000F041BB00BF0D
:1044B8005E85000890F834300B2B10B5044609D8F7
:1044C800092B25D223B3062B25D01B48BDE8104065
:1044D80000F02EBB142B10D0152BF6D10B2380F82F
:1044E8003430FFF717FD002320461A461946FFF718
:1044F800CDFDBDE81040FFF712BDC3689B695B683E
:104508002BB9036C03B19847002384F8343010BDED
:10451800094800F00DFB0021204601F063FA002154
:10452800204601F055FA63681B6813B1062120463E
:1045380098470623E9E700BF6985000800F1604352
:1045480000F01F02400903F5614309018000C9B268
:1045580000F1604083F8001300F5614001239340A7
:10456800C0F8803103607047044B1A6B0AB95B6B63
:1045780013B1034800F0DCBA704700BFF0270020F1
:104588007B85000810B5054C236B0BB9636B13B121
:10459800034800F0CDFA0123636310BDF027002023
:1045A8008A85000810B5064C236B13B9636B002B82
:1045B80002DC044800F0BCFA0023636310BD00BFAE
:1045C800F02700209485000810B5064C236B002BBB
:1045D80001DD636B13B1044800F0AAFA0123636399
:1045E80010BD00BFF02700208F85000810B5064CCD
:1045F800236B002B02DD636B002B02DC034800F009
:1046080097FA0023636310BDF027002099850008FE
:1046180010B5202383F31188074C236B002B01DB93
:10462800636B13B1054800F083FA236B01332363EE
:10463800002383F3118810BDF0270020808500082F
:1046480010B5202383F31188074C236B002B01DD61
:10465800636B13B1054800F06BFA236B013B2363CE
:10466800002383F3118810BDF027002085850008FA
:10467800054B1A6B002A02DB5B6B002B02DC03483C
:1046880000F056BA704700BFF02700209E8500084A
:10469800044B1A6B12B95B6B002B02DC024800F06A
:1046A80047BA7047F0270020A485000808B5FFF72F
:1046B80079FF084B1A689A4207D09B6999689368F2
:1046C800994202D2044800F033FA002383F3118898
:1046D80008BD00BFF0270020AA85000810B52023D8
:1046E80083F31188FFF74EFF024B1C69FFF7DEFFCB
:1046F800204610BDF027002010B52023044683F380
:104708001188FFF73FFF044B24699C4208BF00242F
:10471800FFF7CCFF204610BDF027002010B5044657
:10472800FFF7DCFFC3699C4203D0FFF7E5FF0028D1
:10473800F8D110BD034B0022C3E900339A60C3E9E6
:1047480004337047F027002010B50446FFF790FFA8
:1047580014B90D4800F0ECF994F820300BB10F2B88
:1047680002D1094800F0E4F9002384F82030A26857
:10477800064B1B6899689142FBD25A6823606260B5
:10478800204614605C6010BDCC850008F02700202E
:1047980038B50446202383F31188FFF715FF94F8F2
:1047A80020300025052B0BD8DFE803F0030A0A08A0
:1047B8001C16FFF71BFF85F3118838BD636A1D605F
:1047C8004FF0FF3363622046FFF7BEFFFFF70EFF8F
:1047D800002383F31188F0E7656AFFF749FFAB68A8
:1047E8000133AB60D4E900231A6022685360E7E71D
:1047F80010B50446FFF73CFF14B90D4800F098F9CE
:1048080094F820300BB10F2B02D1094800F090F931
:10481800002384F82030A268064B1B6899689142EF
:10482800FBD85A6823606260204614605C6010BD43
:10483800D8850008F027002070B50F4CA5690646FA
:10484800FFF726FF236885F820601A682260546005
:104858000122A36183F82020EFF30983EA69643B0E
:104868009A4202D9054800F063F92946A069BDE8D3
:104878007040FBF7E1BC00BFF0270020F685000878
:1048880070B50E4686B00546FFF702FF731C0D4C47
:1048980013D0A3690C4A314601A800F005FB28464D
:1048A800FFF7CAFFFFF7E4FE049B13B101A800F06D
:1048B80051FBA369586A06B070BD2846FFF7BCFFD4
:1048C800F7E700BFF027002099470008F8B5194C12
:1048D80005460F46A669FFF7DBFE2368A34207D00B
:1048E800A2699B6892689A4202D2134800F020F9A4
:1048F800AA68B3686F629A4204D82846BDE8F840AF
:10490800FFF722BF3046FFF71FFF01230646A561C8
:1049180085F82030EFF30983C269643B9A4202D9D3
:10492800064800F005F931462846BDE8F840FBF78F
:1049380083BC00BFF0270020E9850008F685000841
:10494800044B1A689B6990689B68984294BF002042
:1049580001207047F027002038B50E4C2368A06965
:104968001A6822605460012283F82020A361FFF7AF
:104978003FFF0546EFF30983C269643B9A4202D9B7
:10498800054800F0D5F82946A069BDE83840FBF78E
:1049980053BC00BFF0270020F685000808B5FFF7D4
:1049A80077FEFFF765FE064B1A689B6992689B685D
:1049B8009A4203D9BDE80840FFF7CEBF08BD00BF43
:1049C800F0270020FFF7C8BF38B50D46044608B1E8
:1049D800002902DA034800F0ABF8C4E90044A560F6
:1049E80038BD00BF0586000838B504460D46FFF7F8
:1049F8004FFE14B9144800F09BF8A2682368002AF7
:104A08000BDBA3420BD1A3685A1E002AA26018DA56
:104A18004DB9A3604FF0FF3038BDA342F3D10A4827
:104A280000F086F8EFE7094B62689B6929465C62EB
:104A38001C605A60052013606360BDE83840FFF7CA
:104A48001FBF0020E8E700BF15860008F0270020F8
:104A580010B50446FFF70CFE14B90F4800F068F8CB
:104A6800A2682368002A10DBA34210D1A36801338F
:104A7800002BA3600FDC2068036823605C600023C0
:104A88004362BDE81040FFF75FBEA342EED1024883
:104A980000F04EF8EAE710BD27860008FEE70000A0
:104AA80038B51B4CFFF746FE002500F0EFF98022D1
:104AB800184904F13800C4E90C5500F0E7F8164B22
:104AC800C361012380F82030144B154AD968A061CE
:104AD80021F4E0610904090C0A431249DA60CA6842
:104AE80042F08072CA6010490A6842F001020A6006
:104AF8001022DA77202283F82220FFF735FD85F38C
:104B0800118862B60948BDE8384000F00BB900BF0B
:104B1800F0270020B68500080004002000ED00E022
:104B28000003FA05F0ED00E0001000E04086000800
:104B380072B6014BD862FEE7F02700202DE9F84F46
:104B4800274CFFF795FD4FF00008FFF791FDE56949
:104B580004F11C0AC1464FF08047A66A7B6AAA681E
:104B68009E1B964221D32027AA68A36AD5F80CB0C9
:104B78001344A3622B685345C3F804A0A6EB0206AE
:104B8800E361C5F80C8001D1FFF746F9FFF72EFD68
:104B980089F311882869D84787F31188FFF714FD2E
:104BA800E569AB689E42DFD2D5E7E269524515D088
:104BB8009168A3628E1B9660AD68022D2CBF5D19AB
:104BC8009D1C2846FFF72EF9A36A7A6AD21AEB1AB7
:104BD8009A4203D972B6034BE362FEE7BDE8F88F49
:104BE800F027002034860008034B59685A68521A87
:104BF8009042FBD8704700BF001000E0202383F3E9
:104C08001188FFF7BFBC000008B5FFF7CBFC084BC5
:104C18001A689A4207D09B6999689368994202D2A8
:104C28000448FFF785FF002383F3118808BD00BF00
:104C3800F02700205D8600080368984270B5044696
:104C48000E4602D10948FFF773FF25682B682360D9
:104C58005C6095F82030042B02D00448FFF768FF09
:104C68006E622846BDE87040FFF76EBD7586000885
:104C780010B5044610B90448FFF75AFF214608202A
:104C8800BDE81040FFF7FCBD69860008826002227B
:104C98000284012280F82220034A8161516902615D
:104CA8004161086150617047F027002010B5044643
:104CB800FFF7DEFC14B91948FFF73AFF626850079E
:104CC80008D1A368590705D19A4203D29B1AB3F5B4
:104CD8009C7F02D21148FFF72BFFE368FF2B01D816
:104CE800236913B90D48FFF723FFD4E9013040F8D1
:104CF8000C3CA0F18C0340F81C3C236940F84C3C68
:104D0800636940F8483C064B40F82C3CE26821684F
:104D18002838BDE81040FFF7B9BF00BF89860008F2
:104D28005902000810B504464068FFF7F7FC10B1B7
:104D38000B48FFF7FDFED4E9013255219A420CD801
:104D4800FFF75CFF2046FFF7B1FF00210446FFF79D
:104D5800BDFDFFF759FF204610BD03F8011BEDE725
:104D68009F860008F8B50C4616461F46054648B10A
:104D7800420707D1B1F59C7F04D34B0702D1FF2E20
:104D880000D817B91748FFF7D3FE2846FFF7C6FC27
:104D980010B11448FFF7CCFE2A192B4655219A4228
:104DA8001CD8FFF72BFFA4F128002844A0F16403C6
:104DB800C360069B40F8203C0B4B40F8043C32464D
:104DC800C56140F8247C0949FFF760FF00210446CB
:104DD800FFF77CFDFFF718FF2046F8BD03F8011B1D
:104DE800DDE700BFAB86000859020008C886000846
:104DF80008B5094B9B6993F82220586222B9D3E978
:104E0800041211611B695A610F20FFF715FD034851
:104E1800BDE80840FFF78CBEF0270020BD860008DB
:104E280010B50446FFF7EAFE2046BDE81040FFF73C
:104E3800DFBF10B50446FFF7E1FE2046FFF718FF75
:104E4800BDE81040FFF7E0BE49B1064B42689B69D8
:104E580018605A60136043600420FFF711BD4FF0DB
:104E6800FF307047F02700200368834201D0FFF726
:104E7800E3BE704738B504460D4623689C4200D10E
:104E880038BD29462046FFF7D7FEF6E7054B03F164
:104E98001C02C3E907224FF0FF310022C3E90912BF
:104EA800704700BFF02700202DE9F04106460C4668
:104EB80015461F46FFF7DCFB0EB105B114B92348B0
:104EC800FFF736FE224A1046C6E9035750F81C5F22
:104ED800022C4FF08043214638BF022185425B6A8D
:104EE80017460AD1C2E9076693625818C6E9005501
:104EF800B160BDE8F041FEF77DBF906A1C1A6418E6
:104F0800AB6804D32D68E41ADFF840800DE09C42BA
:104F1800FAD22044FEF786FFF6E7B54202D14046B2
:104F2800FFF706FEAB682D68E41AAB68A342F4D31A
:104F38006B68736035601E606E60B460AB681C1B84
:104F48004FF0FF33AC607B62BDE8F081CF8600088C
:104F5800F027002010B50446FFF78AFB14B91D4856
:104F6800FFF7E6FDE36813B91A48FFF7E1FD1A49B0
:104F78000B4653F81C2FA24222680DD061680A60C4
:104F8800226851609A424FF00001E16003D09368B3
:104F9800A1680B44936010BD00209A42CA61536017
:104FA800E06003D1BDE81040FEF736BF9368A06803
:104FB800034493604FF08042886A526A121A9342FF
:104FC800E9D9991A012998BF931C1844BDE81040E3
:104FD800FEF728BFDA860008F0270020064A536843
:104FE80023F001035360EFF30983683383F30988DF
:104FF800002383F31188704730EF00E010B52023B9
:1050080083F31188104B5B6813F4006318D0F1EE3A
:10501800103AEFF309844FF0807344F84C3C0B4B83
:10502800DB6844F8083CA4F1680383F30988FFF7B8
:1050380087FC18B1064B44F8503C10BD054BFAE705
:1050480083F31188F9E700BF00ED00E030EF00E0DE
:105058006D0200087802000808B5184B1A696FEA53
:10506800C2526FEAD2521A611A69C2F308021A616F
:105078004FF0FF301A695A69586100215A6959611D
:105088005A691A6A62F080521A621A6A02F08052E9
:105098001A621A6A5A6A58625A6A59625A6A1A6CC1
:1050A80042F080521A641A6E42F080521A661B6EE1
:1050B80000F066FEBDE8084000F001BF003802407D
:1050C80030B5D0E9154300229D6811464FF0FF30F6
:1050D80004EB421301329542C3F80019C3F81019C2
:1050E800C3F80809C3F8001BC3F8101BC3F8080B62
:1050F800EED24FF00113C4F81C3830BD890141F0DD
:105108002001016103699B06FCD41220FFF76CBDE6
:105118002DE9F74FDFF8A490DFF8A4B000F10108FB
:1051280006464FEA0838CA46B71C09EB8703596890
:10513800D9F854304A69D2E90040A0420BD3D3F8D9
:105148003428012000FA06F622EA0606C3F8346875
:1051580003B0BDE8F08F098A241A8C4228BF0C4698
:1051680003EB4611D1F8181989B2B4EB810F22D894
:1051780003EB080195685CB1621E22F00302281D4A
:105188002B46024453F8040B08609A42FAD107E010
:1051980058460193FFF7CCFC019B2A6843F8082086
:1051A8000AEB87077B685B699A6822449A605A68A9
:1051B80014445C60B8E70020CAE700BF98290020C3
:1051C800F586000810B5054C2046FEF7B1FE4FF0F5
:1051D800A0436365024BA36510BD00BF982900205A
:1051E800348700080378012B70B5054650D12A4B47
:1051F800446D98421BD1294B5A6B42F080025A6386
:105208005A6D42F080025A655A6D5A6942F080021E
:105218005A615A6922F080025A610E2143205B6963
:10522800FFF78CF91E4BE3601E4BC4F800380023CF
:10523800C4F8003EC02323606E6D4FF45023A3636F
:105248003369002BFCDA012333610C20FFF7CCFC17
:105258003369DB07FCD41220FFF7C6FC3369002B47
:10526800FCDA0026A6602846FFF72AFF6B68C4F818
:105278001068DB68C4F81468C4F81C684BB90A4B9A
:10528800A3614FF0FF336361A36843F00103A36098
:1052980070BD064BF4E700BF982900200038024093
:1052A8004014004003002002003C30C0083C30C0DD
:1052B800F8B5446D054600212046FFF71FFFA96D8C
:1052C80000234FF001128F68C4F834384FF000669D
:1052D800C4F81C284FF0FF3004EB431201339F42FF
:1052E800C2F80069C2F8006BC2F80809C2F8080BD6
:1052F800F2D20B686A6DEB6563621023136116695D
:1053080016F01006FBD11220FFF76EFCD4F8003817
:10531800AA6D23F4FE63C4F80038A369526843F405
:10532800402343F01003A3610923C4F81038C4F8DC
:1053380014380D4BEB604FF0C043C4F8103B0B4BD7
:10534800C4F8003BC4F81069EE6DC4F8003906F1E2
:1053580010039342EB6502D90548FFF7E9FB46F4D1
:105368008016A662F8BD00BF1087000840800010B4
:10537800E7860008426D90F84E10D2F8003823F402
:10538800FE6343EA0113C2F8003870472DE9F74F6E
:105398000FFA81FB00EB8B0A0646DAF80C20176837
:1053A80007F00303022B0D4660D0032B60D0434F58
:1053B8004349012B18BF0F46746D6901631800201B
:1053C800C3F8100B05F11003012098409369002BD6
:1053D80050D0B2F812C005F158035B014CEA070C33
:1053E80044F803C0D4F81C38184321440023C4F8F7
:1053F8001C08C1F8103953694FF0010905F1FF384D
:1054080009FA05F9002B42D0138A928BB16D9B08DB
:10541800012A88BF5343F26D49684FEA034B13448E
:105428008B42F36504D927480192FFF781FB019A63
:10543800706D08F1400804EB88084BEA020229461F
:10544800C8F80420FFF75AFEDAF80C301B8A43EA42
:10545800855348356D011F436751D4F81C3843EA1A
:105468000903C4F81C3803B0BDE8F08F164FA3E752
:10547800164FA1E704EB4B1CDCF8003B23F4004378
:10548800CCF8003BD4F81C3823EA0000ADE705F15E
:105498003F0304EB83030E4A5A6004EB4B1B294677
:1054A800706DFFF72BFEDBF8003923F40043CBF8CF
:1054B8000039D4F81C3823EA0903D2E70080041025
:1054C80000800010E78600080080081000800C109B
:1054D80000040002826D1268C265FFF7F1BD583101
:1054E800436D49015B5813F4004004D013F4001FC6
:1054F80014BF0120022070474831436D49015B58B1
:1055080013F4004004D013F4001F14BF012002203C
:10551800704700EB8101CB68196A0B6813604B6810
:105528005360704700EB810330B5DD68AA691368E2
:10553800D36019B9402B84BF402313606B8A146869
:10554800426D1C44013CB4FBF3F46343033323F082
:10555800030302EB411043EAC44343F0C043C0F8DD
:10556800103B2B6803F00303012B09B20ED1D2F8CC
:10557800083802EB411013F4807FD0F8003B14BFC9
:1055880043F0805343F00053C0F8003B02EB411254
:10559800D2F8003B43F00443C2F8003B30BD0000A2
:1055A8002DE9F041264D6E6D06EB40130446D3F805
:1055B800087BC3F8087B38070AD5D6F814381907CA
:1055C80006D505EB84032146DB6828465B689847C7
:1055D800FA0723D5D6F81438DB071FD505EB840363
:1055E800D968ECB98B69488A5E68B6FBF0F200FBB3
:1055F8001262AAB91868DA68904211D2121AC3E97D
:105608000024202383F31188FEF7DEFF21460C488F
:10561800FFF788FFFEF7EAFF84F31188BDE8F08101
:10562800012303FA04F26B8923EA02036B81CB6836
:10563800002BF3D021460248BDE8F041184700BFCF
:105648009829002000EB810370B5DD68436D6C6913
:105658002668E6604A0156BB1A444FF40020C2F897
:1056680010092A6802F00302012A0AB20ED1D3F8FF
:10567800080803EB421410F4807FD4F8000914BF23
:1056880040F0805040F00050C4F8000903EB42128B
:10569800D2F8000940F00440C2F80009D3F83408F1
:1056A800012202FA01F10143C3F8341870BD19B997
:1056B800402E84BF4020206020682E8A841940F044
:1056C8000050013C1A44B4FBF6F440EAC440C6E773
:1056D8002DE9F041234D6E6D06EB40130446D3F8D7
:1056E8000879C3F80879F9071ED5D6F81038DA070B
:1056F8001AD505EB8003D9684B691868DA689042B7
:105708001FD2121A4FF000081A60C3F80480202331
:1057180083F31188FEF758FF21462846FFF792FFCA
:10572800FEF764FF88F311883B0618D5D6F83428AD
:105738000123A340134212D02046BDE8F041FFF7F1
:10574800E7BC012303FA04F22B8923EA02032B8125
:105758008B68002BE8D0214628469847E4E7BDE847
:10576800F08100BF982900202DE9F84FFEF750FF7F
:105778009648456D6E69AB691E4016F4805F6E6190
:10578800044607D0FEF7AEFCFEF75AFFBDE8F84F17
:10579800FFF734BC002E12DAD5F8003E8B489B0781
:1057A8001EBFD5F8003E23F00303C5F8003ED5F828
:1057B800043823F00103C5F80438FEF7B6FC3705B2
:1057C80002D58248FEF7A6FCB0040CD5D5F80838F7
:1057D80013F0060FEB6823F470530CBF43F4105317
:1057E80043F4A053EB60310704D56368DB680BB161
:1057F80076489847F2025AD4B3020CD5D4F85480AC
:10580800DFF8C8A100274FF00109A36D9B68F9B222
:105818008B4280F08780F70619D5616D0A6AC2F35A
:105828000A1702F00F0302F4F012B2F5802F00F00D
:10583800A180B2F5402F0AD104EB830301F5805112
:10584800DB68186A00231A469F4240F087803003BD
:10585800D5F8184813D5E10302D50020FFF7A0FEBC
:10586800A20302D50120FFF79BFE630302D50220A5
:10587800FFF796FE270302D50320FFF791FE750375
:1058880082D5E00702D50020FFF722FFA10702D545
:105898000120FFF71DFF620702D50220FFF718FF5E
:1058A80023077FF571AF0320FFF712FF6CE7D4F8E9
:1058B8005480DFF818A100274FF00109A36D9B68F9
:1058C8005FFA87FB5B4597D308EB4B13D3F80029A6
:1058D80002F44022B2F5802F22D1D3F80029002A01
:1058E8001EDAD3F8002942F09042C3F80029D3F811
:1058F8000029002AFBDB5946606DFFF7FFFB228970
:1059080009FA0BF322EA0303238104EB8B03DB6818
:105918009B6813B15946504698475846FFF7F8FB1D
:105928000137CBE708EB4112D2F8003B03F44023E0
:10593800B3F5802F10D1D2F8003B002B0CDA628926
:1059480009FA01F322EA0303638104EB8103DB68AC
:10595800DB680BB150469847013756E79C0708BFEC
:105968000A68072B98BF027003F101039CBF120A53
:10597800013069E7023304EB830201F58051526874
:105988009069D0F808E0D0E90020A2EB000C0022D2
:10599800104697420AD104EB830463689B699A68AE
:1059A8003A449A605A6817445F6050E712F0030F50
:1059B80008BF0868944588BF8EF8000002F101020C
:1059C80084BF000A0EF1010EE3E700BF982900200A
:1059D800436D03EB4111D1F8003B43F40013C1F8C8
:1059E800003B7047436D03EB4111D1F8003943F494
:1059F8000013C1F800397047436D03EB4111D1F82A
:105A0800003B23F40013C1F8003B7047436D03EBE0
:105A18004111D1F8003923F40013C1F80039704757
:105A280008B5FEF7BFFD084B1A689A4207D09B6974
:105A380099689368994202D20448FFF779F80023DD
:105A480083F3118808BD00BFF027002040870008B5
:105A580008B5FEF7DDFD084B084A196801F03D015D
:105A6800996053680BB190689847FEF7E9FDBDE867
:105A78000840FFF7C3BA00BF006002406020002062
:105A880008B5FEF7C5FD094B1968890901F03D0104
:105A98008A019A60064AD3680BB110699847FEF7E5
:105AA800CFFDBDE80840FFF7A9BA00BF006002407B
:105AB8006020002008B5FEF7ABFD094B1968090CFA
:105AC80001F03D010A049A60064A53690BB19069D6
