:020000040800F2
:1000000000040020390200083B0200086D180008B7
:100010003B0200083B0200083B0200083B020008CC
:100020003B0200083B0200083B020008414F000869
:100030003B0200083B0200083B0200083B020008AC
:100040003B0200083B0200083B0200083B0200089C
:100050003B0200083B0200083B0200083B0200088C
:100060003B0200083B0200083B020008B9590008A7
:10007000E95900081D5A0008515A0008855A00081D
:10008000B55A0008E95A00083B0200083B02000884
:100090003B0200083B0200083B0200083B0200084C
:1000A0003B0200083B0200083B0200083B0200083C
:1000B000853D00083B0200083B0200083B020008A7
:1000C0003B0200083B0200083B020008B11E00088A
:1000D000F11E00083B0200083B0200083B0200083A
:1000E0003B0200083B0200083B0200083B020008FC
:1000F0003B0200083B0200083B0200081D5B0008B1
:100100003B0200083B020008952B0008311F000845
:100110003B0200083B0200083B0200083B020008CB
:10012000515B0008815B0008B55B0008E95B0008D3
:100130001D5C00083B0200083B0200083B0200086F
:100140003B0200083B0200083B020008D1560008B1
:100150004D5C0008815C0008B55C00083B020008AB
:100160003B0200083B0200083B0200083B0200087B
:100170003B0200083B0200083B0200083B0200086B
:100180003B0200083B0200083B0200083B0200085B
:100190003B0200083B0200083B0200083B0200084B
:1001A0003B0200083B0200083B0200083B0200083B
:1001B0003B0200083B0200083B0200083B0200082B
:1001C0003B0200083B0200083B0200083B0200081B
:1001D0003B0200083B0200083B0200083B0200080B
:1001E0001D0200089D120008FD13000815320008CA
:0801F000A1610008F9010008FB
:1001F80010B5054C237833B9044B13B10448AFF359
:1002080000800123237010BDE009002000000000D9
:10021800908B000808B5034B1BB103490348AFF3A3
:10022800008008BD00000000E4090020908B000851
:1002380020E000F000F8FEE72DE9F04F2DED108AE0
:10024800C1F80CD0C3689D46BDEC108ABDE8F08F9C
:1002580004F052F9002383F311882846A0470020B0
:1002680004F08AFD04F038F904F020FB04F044F9A6
:1002780000DFFEE772B6394880F30888384880F313
:10028800098838484EF60851CEF20001086040F25D
:100298000000CCF200004EF63471CEF20001086086
:1002A800BFF34F8FBFF36F8F40F20000C0F2F00032
:1002B8004EF68851CEF200010860BFF34F8FBFF3AE
:1002C8006F8F4FF00000E1EE100A4EF63C71CEF24F
:1002D80000010860062080F31488BFF36F8F03F0D5
:1002E800A3F801F047FD4FF055301F491B4A9142D2
:1002F8003CBF41F8040BFAE71C49194A91423CBF3C
:1003080041F8040BFAE71A491A4A1B4B9A423EBFB6
:1003180051F8040B42F8040BF8E700201749184A73
:1003280091423CBF41F8040BFAE703F081F803F06F
:100338007CF8144C144DAC4203DA54F8041B88477B
:10034800F9E702F047FD114C114DAC4203DA54F8BD
:10035800041B8847F9E703F069B80000000400208F
:100368000008002000000008000000200004002011
:10037800908B000800080020E0090020E009002018
:10038800F4290020E0010008F4010008F401000845
:10039800F8010008034613F8012B002AFBD1181AAC
:1003A8000138704781F0004102E000BF83F000434C
:1003B80030B54FEA41044FEA430594EA050F08BFF8
:1003C80090EA020F1FBF54EA000C55EA020C7FEABC
:1003D800645C7FEA655C00F0E2804FEA5454D4EB39
:1003E8005555B8BF6D420CDD2C4480EA020281EA03
:1003F800030382EA000083EA010180EA020281EA3B
:100408000303362D88BF30BD11F0004F4FEA01318C
:100418004FF4801C4CEA113102D0404261EB41019B
:1004280013F0004F4FEA03334CEA133302D0524221
:1004380063EB430394EA050F00F0A780A4F10104DD
:10044800D5F1200E0DDB02FA0EFC22FA05F2801817
:1004580041F1000103FA0EF2801843FA05F35941FD
:100468000EE0A5F120050EF1200E012A03FA0EFC7C
:1004780028BF4CF0020C43FA05F3C01851EBE371A6
:1004880001F0004507D54FF0000EDCF1000C7EEBC3
:1004980000006EEB0101B1F5801F1BD3B1F5001F01
:1004A8000CD349085FEA30004FEA3C0C04F1010420
:1004B8004FEA445212F5800F80F09A80BCF1004F49
:1004C80008BF5FEA500C50F1000041EB045141EACB
:1004D800050130BD5FEA4C0C404141EB010111F4CC
:1004E800801FA4F10104E9D191F0000F04BF014677
:1004F8000020B1FA81F308BF2033A3F10B03B3F155
:1005080020020CDA0C3208DD02F1140CC2F10C02E4
:1005180001FA0CF021FA02F10CE002F11402D8BF42
:10052800C2F1200C01FA02F120FA0CFCDCBF41EA0E
:100538000C019040E41AA2BF01EB0451294330BDDD
:100548006FEA04041F3C1CDA0C340EDC04F11404BA
:10055800C4F1200220FA04F001FA02F340EA030091
:1005680021FA04F345EA030130BDC4F10C04C4F1D7
:10057800200220FA02F001FA04F340EA03002946B7
:1005880030BD21FA04F0294630BD94F0000F83F401
:10059800801306BF81F480110134013D4EE77FEAE4
:1005A800645C18BF7FEA655C29D094EA050F08BF30
:1005B80090EA020F05D054EA000C04BF1946104611
:1005C80030BD91EA030F1EBF0021002030BD5FEA55
:1005D800545C05D14000494128BF41F0004130BD7D
:1005E80014F580043CBF01F5801130BD01F00045D1
:1005F80045F0FE4141F470014FF0000030BD7FEA44
:10060800645C1ABF194610467FEA655C1CBF0B463E
:10061800024650EA013406BF52EA033591EA030F55
:1006280041F4002130BD00BF90F0000F04BF00214D
:10063800704730B54FF4806404F132044FF0000580
:100648004FF0000150E700BF90F0000F04BF0021F9
:10065800704730B54FF4806404F1320410F000455F
:1006680048BF40424FF000013EE700BF42004FEA5A
:10067800E2014FEA31014FEA02701FBF12F07F43D7
:1006880093F07F4F81F06051704792F0000F14BFD4
:1006980093F07F4F704730B54FF4607401F0004518
:1006A80021F0004120E700BF50EA010208BF70476F
:1006B80030B54FF000050AE050EA010208BF704764
:1006C80030B511F0004502D5404261EB41014FF4CD
:1006D800806404F132045FEA915C3FF4DCAE4FF0D1
:1006E80003025FEADC0C18BF03325FEADC0C18BFB8
:1006F800033202EBDC02C2F1200300FA03FC20FA09
:1007080002F001FA03FE40EA0E0021FA02F1144455
:10071800C1E600BF70B54FF0FF0C4CF4E06C1CEA6A
:1007280011541DBF1CEA135594EA0C0F95EA0C0FDF
:1007380000F0DEF82C4481EA030621EA4C5123EA52
:100748004C5350EA013518BF52EA033541F4801181
:1007580043F4801338D0A0FB02CE4FF00005E1FB34
:1007680002E506F00042E0FB03E54FF00006E1FB7E
:1007780003569CF0000F18BF4EF0010EA4F1FF04C1
:10078800B6F5007F64F5407404D25FEA4E0E6D4101
:1007980046EB060642EAC62141EA55514FEAC52012
:1007A80040EA5E504FEACE2EB4F1FD0C88BFBCF58E
:1007B800E06F1ED8BEF1004F08BF5FEA500E50F13F
:1007C800000041EB045170BD06F0004646EA010105
:1007D80040EA020081EA0301B4EB5C04C2BFD4EB37
:1007E8000C0541EA045170BD41F480114FF0000E30
:1007F800013C00F3AB8014F1360FDEBF002001F09E
:10080800004170BDC4F10004203C35DA0C341BDC17
:1008180004F11404C4F1200500FA05F320FA04F0E9
:1008280001FA05F240EA020001F0004221F000411D
:1008380010EBD37021FA04F642EB06015EEA430E90
:1008480008BF20EAD37070BDC4F10C04C4F12005C0
:1008580000FA04F320FA05F001FA04F240EA020073
:1008680001F0004110EBD37041F100015EEA430E44
:1008780008BF20EAD37070BDC4F1200500FA05F264
:100888004EEA020E20FA04F301FA05F243EA0203E3
:1008980021FA04F001F0004121FA04F220EA0200F2
:1008A80000EBD3705EEA430E08BF20EAD37070BD38
:1008B80094F0000F0FD101F00046400041EB010118
:1008C80011F4801F08BF013CF7D041EA060195F0FA
:1008D800000F18BF704703F00046520043EB0303B4
:1008E80013F4801F08BF013DF7D043EA06037047A1
:1008F80094EA0C0F0CEA135518BF95EA0C0F0CD0AC
:1009080050EA410618BF52EA4306D1D181EA0301F1
:1009180001F000414FF0000070BD50EA410606BFEB
:100928001046194652EA430619D094EA0C0F02D130
:1009380050EA013613D195EA0C0F05D152EA033675
:100948001CBF104619460AD181EA030101F0004193
:1009580041F0FE4141F470014FF0000070BD41F0DC
:10096800FE4141F4780170BD70B54FF0FF0C4CF4B6
:10097800E06C1CEA11541DBF1CEA135594EA0C0FD5
:1009880095EA0C0F00F0A7F8A4EB050481EA030E22
:1009980052EA03354FEA013100F088804FEA033309
:1009A8004FF0805545EA131343EA12634FEA0222D7
:1009B80045EA111545EA10654FEA00260EF0004198
:1009C8009D4208BF964244F1FD0404F5407402D2EA
:1009D8005B084FEA3202B61A65EB03055B084FEA7B
:1009E80032024FF480104FF4002CB6EB020E75EB78
:1009F800030E22BFB61A754640EA0C005B084FEAA0
:100A08003202B6EB020E75EB030E22BFB61A75461C
:100A180040EA5C005B084FEA3202B6EB020E75EB67
:100A2800030E22BFB61A754640EA9C005B084FEADF
:100A38003202B6EB020E75EB030E22BFB61A7546EC
:100A480040EADC0055EA060E18D04FEA051545EADB
:100A580016754FEA06164FEAC30343EA52734FEA84
:100A6800C2025FEA1C1CC0D111F4801F0BD141EAFD
:100A780000014FF000004FF0004CB6E711F4801F62
:100A880004BF01430020B4F1FD0C88BFBCF5E06F42
:100A98003FF6AFAEB5EB030C04BFB6EB020C5FEA52
:100AA800500C50F1000041EB045170BD0EF0004EA7
:100AB8004EEA113114EB5C04C2BFD4EB0C0541EAD9
:100AC800045170BD41F480114FF0000E013C90E6D6
:100AD80045EA060E8DE60CEA135594EA0C0F08BF9A
:100AE80095EA0C0F3FF43BAF94EA0C0F0AD150EA99
:100AF80001347FF434AF95EA0C0F7FF425AF10462C
:100B080019462CE795EA0C0F06D152EA03353FF453
:100B1800FDAE1046194622E750EA410618BF52EAD0
:100B280043067FF4C5AE50EA41047FF40DAF52EAA4
:100B380043057FF4EBAE12E74FF0FF3C06E000BF41
:100B48004FF0010C02E000BF4FF0010C4DF804CD4E
:100B58004FEA410C7FEA6C5C4FEA430C18BF7FEA0E
:100B68006C5C1BD001B050EA410C0CBF52EA430C3C
:100B780091EA030F02BF90EA020F0020704710F1BC
:100B8800000F91EA030F58BF994208BF90422CBF4B
:100B9800D8176FEAE37040F0010070474FEA410C44
:100BA8007FEA6C5C02D150EA013C07D14FEA430C62
:100BB8007FEA6C5CD6D152EA033CD3D05DF8040BD3
:100BC800704700BF8446104662468C461946634605
:100BD80000E000BF01B5FFF7B7FF002848BF10F1DC
:100BE800000F01BD4DF808EDFFF7F4FF0CBF012021
:100BF80000205DF808FB00BF4DF808EDFFF7EAFF9D
:100C080034BF012000205DF808FB00BF4DF808ED57
:100C1800FFF7E0FF94BF012000205DF808FB00BF4C
:100C28004DF808EDFFF7CEFF94BF012000205DF8D6
:100C380008FB00BF4DF808EDFFF7C4FF34BF0120E3
:100C480000205DF808FB00BF4FEA410C7FEA6C5CAE
:100C580002D150EA013C0AD14FEA430C7FEA6C5CAE
:100C680002D152EA033C02D14FF0000070474FF026
:100C7800010070474FEA410212F5001215D211D552
:100C88006FF47873B3EB625212D94FEAC12343F081
:100C9800004343EA505311F0004F23FA02F018BF03
:100CA800404270474FF00000704750EA013005D1CC
:100CB80011F0004008BF6FF0004070474FF000008F
:100CC800704700BF4A0011D212F5001211D20DD59B
:100CD8006FF47873B3EB62520ED44FEAC12343F03A
:100CE800004343EA505323FA02F070474FF00000E4
:100CF800704750EA013002D14FF0FF3070474FF093
:100D0800000070474FEA4102B2F1E04324BFB3F557
:100D1800001CDCF1FE5C0DD901F0004C4FEAC0026A
:100D28004CEA5070B2F1004F40EB830008BF20F04E
:100D38000100704711F0804F21D113F13872BCBF08
:100D480001F00040704741F480114FEA5252C2F15D
:100D58001802C2F1200C10FA0CF320FA02F018BFA6
:100D680040F001004FEAC1234FEAD32303FA0CFCF9
:100D780040EA0C0023FA02F34FEA4303CCE77FEA88
:100D8800625307D150EA01331EBF4FF0FE4040F4D2
:100D98004000704701F0004040F0FE4040F4000081
:100DA800704700BF53B94AB9002908BF00281CBFC3
:100DB8004FF0FF314FF0FF3000F07AB9ADF1080C79
:100DC8006DE904CE00F006F8DDF804E0DDE9022361
:100DD80004B070472DE9F0478C460D460446089E3E
:100DE800002B51D18A4217466DD9B2FA82FEBEF164
:100DF800000F0BD0CEF1200C01FA0EF520FA0CFCF6
:100E080002FA0EF74CEA050C00FA0EF44FEA174AFC
:100E1800250CBCFBFAF81FFA87F90AFB18CC45EA3F
:100E28000C4508FB09F3AB420AD9ED1908F1FF326A
:100E380080F02381AB4240F22081A8F102083D44B2
:100E4800ED1AA4B2B5FBFAF00AFB105544EA0544C2
:100E580000FB09F9A14509D9E41900F1FF3380F035
:100E68000A81A14540F2078102383C44A4EB0904F9
:100E780040EA08400021002E61D024FA0EF4002335
:100E880034607360BDE8F0878B4207D9002E54D0D8
:100E9800002186E821000846BDE8F087B3FA83F10F
:100EA800002940F08E80AB4202D3824200F2FA80E1
:100EB800841A65EB03050120AC46002E3FD086E876
:100EC8001010BDE8F08712B90127B7FBF2F7B7FA9F
:100ED80087FEBEF1000F34D1EB1B3A0C1FFA87FCDA
:100EE8000121B3FBF2F8250C02FB183345EA034550
:100EF8000CFB08F3AB4207D9ED1908F1FF3002D219
:100F0800AB4200F2D1808046ED1AA3B2B5FBF2F0F5
:100F180002FB105543EA05440CFB00FCA44507D925
:100F2800E41900F1FF3302D2A44500F2B880184654
:100F3800A4EB0C0440EA08409DE731463046BDE882
:100F4800F087CEF1200405FA0EF307FA0EF720FA1F
:100F580004F83A0C25FA04F448EA0308B4FBF2F161
:100F68004FEA184502FB11441FFA87FC45EA04457D
:100F780001FB0CF3AB4200FA0EF409D9ED1901F1AB
:100F8800FF3080F08A80AB4240F2878002393D44CE
:100F9800EB1A1FFA88F5B3FBF2F002FB103345EAAF
:100FA800034500FB0CF3AB4207D9ED1900F1FF38FC
:100FB8006FD2AB426DD902383D44EB1A40EA014189
:100FC8008FE7C1F1200722FA07F88B4005FA01F4F0
:100FD80048EA030320FA07FE4FEA134CFD404EEAA5
:100FE800040EB5FBFCF94FEA1E440CFB19551FFA19
:100FF80083F844EA054509FB08F4AC4202FA01F219
:1010080000FA01FA08D9ED1809F1FF3043D2AC42D1
:1010180041D9A9F102091D442D1B1FFA8EFEB5FB0B
:10102800FCF00CFB10554EEA054400FB08F8A045FF
:1010380007D9E41800F1FF3529D2A04527D902388D
:101048001C4440EA0940A4EB0804A0FB02894C4573
:10105800C6464D4615D312D056B1BAEB0E0364EB13
:10106800050404FA07F7CB401F43CC40376074608F
:101078000021BDE8F0871846F8E69046E0E6C2454C
:10108800EAD2B8EB020E69EB03050138E4E728461B
:10109800D7E7404691E78146BEE7014678E7023840
:1010A8003C4445E7084608E7A8F102083D442BE719
:1010B800704700BF37B5484A136B43F00103136309
:1010C800464B196821F440411960196841F4804180
:1010D8001960596821F08001596059685960D968C8
:1010E80021F44041D960D968D960996821F4404118
:1010F8009960996841F400419960116B41F00101D0
:101108001163196821F440611960196841F400619C
:101118001960596821F020015960D96821F44061AB
:10112800D960D968D960996821F440619960996853
:1011380041F400619960196A21F470011962196A11
:1011480041F4A0011962116B41F0010111631A68A1
:1011580022F440521A601A6842F400521A605A681F
:1011680022F040025A60DA6822F44052DA60DA6803
:10117800DA609A6822F440529A609A6842F40052FF
:101188009A601A6A22F070621A621A6A42F0A062C1
:101198001A6280229A61124B002405468DE81800D5
:1011A80022462346214600F001FE2B681A6842F4C5
:1011B80080621A605A6842F001025A600921234687
:1011C800084A082004F018FE0368074AA8609A60D5
:1011D800064A1A6003B030BD0038024000000240E1
:1011E800009F2400911200080C30014010040106F1
:1011F8000B4BDB6883681B68021DDA6003225A60A8
:10120800084A1A601A6842F001021A60064B4FF445
:1012180000029A610268136843F040031360704744
:1012280000300140100401060000024038B50446B1
:10123800202383F3118803F071F92268136823F0DF
:10124800400313600F4B80229A61A26811680B68F3
:1012580023F01F030B600D6815F00105FBD15168E1
:10126800527A3D2393400B6063681BBAC3F38F2304
:101278006360E36001F058FC03F062F985F31188BC
:1012880038BD00BF000002400148FFF7CFBF00BFD4
:10129800FC090020014B024A1A607047FC09002033
:1012A800003001400368197303689A68D207FCD5B7
:1012B800187B7047404A136B43F0020313B513635E
:1012C8003E4B196821F040711960196841F080712E
:1012D8001960596821F48051596059685960D96872
:1012E80021F04071D960D968D960996821F04071BE
:1012F8009960996841F000719960116B41F00201A1
:101308001163196821F040611960196841F00061A2
:101318001960596821F400515960D96821F0406179
:10132800D960D968D960996821F040619960996855
:1013380041F000619960596A21F470015962596A53
:1013480041F4A0015962116B41F0020111631A685E
:1013580022F040421A601A6842F000421A605A6845
:1013680022F400425A60DA6822F04042DA60DA6811
:10137800DA609A6822F040429A609A6842F0004225
:101388009A605A6A22F070425A625A6A42F0A0423F
:101398005A624FF480529A6104460022084B019227
:1013A80000931146012300F001FD2268136843F001
:1013B8004003136002B010BD003802400004024030
:1013C80080C3C90170B50A4C4FF08053A36105462C
:1013D8000E460021FFF766FF310A2846FFF762FF35
:1013E800F1B22846FFF75EFF4FF48053A36170BD4A
:1013F80000040240014B024A1A6070470C0A0020A0
:1014080000380040044B9B68C3F38223032B034B33
:10141800586888BF4000704700380240100A002012
:10142800F0B53D4CA0423BD13C4D2C6B44F001043F
:101438002C634E0003240568B440E443254005604E
:1014480007680225B5403D4305600125002A5FD1A4
:1014580042688D4022EA05054560C2682240C260A4
:10146800C268C2608268144084609DF81420846851
:10147800B240224307298260CCBF0122002200EB40
:101488008200C8BF0839026A89000F248C4022EA0A
:1014980004020262026A03FA01F111430162F0BD1B
:1014A8001F4CA04204D11D4D2C6B44F00204BFE731
:1014B8001C4CA04204D1194D2C6B44F00404B7E72E
:1014C800194CA04204D1154D2C6B44F00804AFE729
:1014D800164CA04204D1114D2C6B44F01004A7E720
:1014E800134CA04204D10D4D2C6B44F020049FE70F
:1014F800104CA04204D1094D2C6B44F0400497E7EE
:101508000D4CA04295D1054D2C6B44F080048FE71B
:1015180042688D4015439FE70000024000380240B2
:101528000004024000080240000C02400010024083
:101538000014024000180240001C024010B520238D
:10154800044683F3118802F0E9FF236820461B68EC
:10155800984702F0F5FF002383F3118810BD8842F5
:1015680030B515D0421E12F8014FA4F14103192BD2
:1015780011F8013BA3F1410594BF04F12000204676
:10158800192D98BF2033C01A03D1002CEBD130BDE0
:10159800002030BD0368574A93420AD1564B5A6C13
:1015A80042F001025A645A6E22F001025A665B6EDA
:1015B8007047B3F1804F0BD103F50E331A6C42F02C
:1015C80001021A641A6E22F001021A661B6E704735
:1015D8004A4A934208D1484B1A6C42F002021A64F4
:1015E8001A6E22F00202F0E7454A934208D1424BB4
:1015F8001A6C42F004021A641A6E22F00402E4E73C
:10160800404A934208D13C4B1A6C42F008021A64D3
:101618001A6E22F00802D8E73B4A934208D1364BAB
:101628001A6C42F010021A641A6E22F01002CCE70B
:10163800364A934208D1304B1A6C42F020021A64A1
:101648001A6E22F02002C0E7314A934208D12A4B91
:101658005A6C42F002025A645A6E22F00202A5E75E
:101668002C4A934208D1244B5A6C42F480325A6473
:101678005A6E22F4803299E7274A934208D11E4BCA
:101688005A6C42F400325A645A6E22F400328DE7E2
:10169800224A934208D1184B5A6C42F480225A6469
:1016A8005A6E22F4802281E71D4A934208D1124BD8
:1016B8001A6C42F040021A641A6E22F0400284E763
:1016C800184A934208D10C4B1A6C42F080021A64F3
:1016D8001A6E22F0800278E7134A93427FF477AFBC
:1016E800054B1A6C42F480721A641A6E22F48072E6
:1016F8006BE700BF000001400038024000040040D2
:1017080000080040000C0040001000400014004099
:1017180000040140004001400044014000480140ED
:1017280000180040001C00400020004013B504468B
:10173800FFF730FF036801694FF440425A64826939
:10174800DA62027D0139012A0CBF07220622032929
:101758000BD8DFE801F0021E262E996941EA021231
:101768009A611A6A42F001021A621A6842F001028A
:101778001A602F4A934202D0B3F1804F21D102233D
:10178800627D2189009301236068FFF749FE02B05A
:1017980010BD996941EA02329A611A6A42F0100250
:1017A800E2E7D96941EA0212DA611A6A42F4807200
:1017B800DAE7D96941EA0232DA611A6A42F48052F8
:1017C800D2E71C4A934207D002F58062934203D0C5
:1017D80002F58062934204D10223627D218900933D
:1017E800D2E7154A93420BD002F57052934207D0C4
:1017F80002F58062934203D002F58062934205D1DC
:1018080002230093627D21890323BDE70B4A93429B
:1018180007D002F58062934203D002F580629342BA
:10182800B5D102230093627D21890923ACE700BF6B
:10183800000001400004004000040140001800407E
:10184800074B5A6922F080025A61013810F8012FBB
:1018580022B119680906FCD55A60F7E7704700BF3E
:101868000010014008B50248FFF7EAFF01BEFEE795
:101878009880000813B503780C4663B101A905F0F8
:101888004FFB019B84ED000A1B78002B0CBF002046
:101898000D2002B010BD0B20FBE70000074B1A68B3
:1018A80042F480321A6042F20F721968890303D435
:1018B800013AFAD1022070470020704700380240F0
:1018C800074B1A6842F080721A6042F20F72196868
:1018D800890103D4013AFAD10220704700207047E9
:1018E80000380240F0B504463E48836803F00C0314
:1018F800042B87B074D0082B58D03B4B3B4A02AE20
:1019080002F1100710685168354603C50832BA421B
:101918002E46F7D13348826806A9C2F303120A4457
:10192800012112F8102C8DF80410D34000228DF8F4
:1019380000208DF801208DF802208DF80320022266
:101948008DF8052003228DF8062004228DF8072043
:101958002360826806ADC2F382222A4412F8182C4A
:1019680023FA02F262608268C2F342322A4412F811
:10197800182CD3404FF08042A360136823F0010372
:101988001360FFF73FFD42F21073B0FBF3F001382C
:10199800536A9062516100BF00BF00BF00BF53622D
:1019A800136843F00103136007B0F0BD456843684E
:1019B800426841680C48C2F3014211F4800FC3F336
:1019C800881302F101020A4905F03F054FEA420275
:1019D80008BF0146B1FBF5F14B43B3FBF2F38DE7CA
:1019E800034B8BE7003802400024F400888000088D
:1019F800001BB7000F4B99420FD003F58063994243
:101A08000BD003F57053994207D003F580639942D0
:101A180003D003F58063994209D1074B9B68C3F350
:101A28004233032B054B986888BF40007047FFF787
:101A3800E9BC00BF0000014000380240100A002045
:101A4800024610B50C4601680748FFF7D3FF126835
:101A5800D36A0133B0FBF3F0B0FBF4F000B1013806
:101A680000239062536210BD100A00200A4610B588
:101A7800016804460548FFF7BDFF2368B0FBF2F094
:101A880001220138D8625A6110BD00BF100A002037
:101A98000F4B99420FD003F5806399420BD003F5A1
:101AA8007053994207D003F58063994203D003F538
:101AB8008063994209D1074B9B68C3F34233032BD8
:101AC800054B986888BF40007047FFF79BBC00BF74
:101AD8000000014000380240100A002010B5074CF1
:101AE800A06820F47C4020F0F00040EA433343EA49
:101AF800822343EA0113A36010BD00BF00380240EF
:101B080010B50446FFF7CAFE90B92046FFF7D8FE85
:101B180080B9094B9A6822F003029A609A6842F0E9
:101B280002029A609A6802F00C02082AFAD110BDE3
:101B3800012010BD022010BD003802403A4B186841
:101B480010B5A2F68D2420F00F00B4F5617F40F4A3
:101B5800C0631CD21E2916DD3C2902DC43F00103B8
:101B680011E05A2904DC40F4C06343F002030AE0A0
:101B7800782902DC40F4C0631CE0962940F4C06375
:101B880031DC43F00403284A0020136010BD6FF4D1
:101B980016641419B4F5967F0FD21829F3DD30298D
:101BA80002DC40F4C063D9E74829DCDD602940F451
:101BB800C063E6DC43F00303E5E7A2F63504B4F5B9
:101BC800967F13D21229DEDD2429EADD3629CADD03
:101BD8004829CFDD5A2902DC40F4C063D1E76C29DB
:101BE80040F4C06317DC43F00503CCE7A2F273624C
:101BF800B2F5E17F15D21029C5DD2029D1DD3029C4
:101C0800B1DD4029B6DD5029E6DD602940F4C06326
:101C1800E9DD702902DC43F00603B4E743F007036B
:101C2800B1E7012010BD00BF003C0240064807494B
:101C38008368B3FBF1F305C8B2FBF1F2B0FBF1F135
:101C4800034800F0F7BA00BF100A002040420F0016
:101C5800A4800008424A38B513680F2943F48073FA
:101C680004460D4613606DDDFFF718FE002875D198
:101C78003C4A1368302D23F0807313603FD00DD891
:101C8800102D19D0182D2AD02046FFF719FE00284C
:101C980064D12046BDE83840FFF732BF402D3ED022
:101CA800482DF1D12F4B196811F0807156D12E4A69
:101CB8005A60042305222BE02A4A136813F0807324
:101CC8004CD12A49516020461A460921FFF706FFE0
:101CD80040F6E44210212046FFF730FFD4E7214ABE
:101CE800136813F0807339D12149516020461A4690
:101CF8000821FFF7F3FE40F6E4421821EBE7194B01
:101D0800196811F0807129D1194A5A6004231A46BA
:101D18002046FFF7E3FE40F6E4423021DBE74021AE
:101D280040F6E4422046FFF709FF0E4B196811F010
:101D3800807113D10D4A5A6004231A462046FFF7D2
:101D4800CDFEA1E73029DAD004D81029B4D018295B
:101D5800C5D038BD4029E2D04829A3D038BD00BF3E
:101D6800003C0240003802400C4841060630420858
:101D7800063043080B4B4FF080521A640A4A002180
:101D880011601A6842F001021A601A689207FCD5BD
:101D98005A6C42F480425A645A6E42F480425A663F
:101DA8005B6E7047003802400070004070B50068F4
:101DB800394D049CA84246D105F584356E6C46F42D
:101DC80080566E646E6E26F480566E666D6E4FF4A5
:101DD80041750560012902BF016841F08001016079
:101DE800012A02BF026842F002020260012B02BF10
:101DF800036843F001030360274B9842274B0CBF4D
:101E08009B685B68B3FBF4F37F2B38DC3F2B38DC33
:101E18001F2B38DC0F2B38DC072B38DC032B38DC86
:101E2800012BD4BF00230123026842EAC3030360E5
:101E38009DF81430012B02BF036843F4006303606C
:101E48000023436070BD164DA8420BD105F500353F
:101E58002E6C46F480462E642E6E26F480462E663E
:101E68002D6EB4E70F4DA842B1D105F5FE352E6CA5
:101E780046F400462E642E6E26F40046EFE707234C
:101E8800D2E70623D0E70523CEE70423CCE70323D4
:101E9800CAE70223C8E700BF00300140100A00204B
:101EA80000380040003C004008B502F05BFB2023EE
:101EB80083F3118802F032FB094B9B68DB0703D5DB
:101EC800084B1B6803B1984702F03AFB002383F3E1
:101ED800118802F05FFBBDE8084003F03DB800BF81
:101EE800003001401C0A002008B502F03BFB20230B
:101EF80083F3118802F012FB094B9B68DB0703D5BB
:101F0800084B1B6803B1984702F01AFB002383F3C0
:101F1800118802F03FFBBDE8084003F01DB800BF80
:101F280000380040200A002008B502F01BFB2023DF
:101F380083F3118802F0F2FA094B9B68DB0703D59B
:101F4800084B1B6803B1984702F0FAFA002383F3A1
:101F5800118802F01FFBBDE8084002F0FDBF00BF7A
:101F6800003C0040240A002008B502F0C5FA084BDE
:101F78001A689A4207D09B6999689368994202D275
:101F8800044802F07DFD002383F3118808BD00BFDB
:101F9800E8270020F88000082DE9F04385B00546C1
:101FA8009DF830909846002401AEB1FBF2F302FB95
:101FB8001310092804F1010494BF30303730371961
:101FC800C0B2194607F8010C002BEED12746474549
:101FD8000DD22B6849461B682846984718B10C2033
:101FE80005B0BDE8F0830137F1E7002CF8D0013CDB
:101FF8002B68315D1B68284698470028F5D0EEE726
:102008002DE9F04F2DED028B054685B00B461446A1
:102018004FF00A0819785E1C41B92B685B6828469E
:1020280005B0BDEC028BBDE8F04F1847252904D058
:102038002B6828461B68984796E093F80190B9F1F9
:10204800300F0CBF9E1C4FF020094FF0000A16F805
:10205800011BA1F13003DBB2092B03D92A2904D1D2
:102068002378043408FB0A3AF1E72E294FF00007D9
:102078000DD116F8011BA1F13003DBB2092B03D9EE
:102088002A2904D12378043408FB0737F1E76329A8
:1020980077D015D8412900F0A08003D82529C7D0CA
:1020A8003346B7E7532977D05829F9D1271DCDF8FA
:1020B80000905346102221682846FFF76DFF66E01E
:1020C800692977D053D8642974D06629E8D10734B0
:1020D80024F00703D3E9000103F10804FEF712FE18
:1020E80008EE100AB5EEC08AF1EE10FA08D52B6892
:1020F8002D211B682846984700288ED1B1EE488AC2
:10210800FDEEC88A7B1E092BCDF8009053464FF090
:102118000A0218EE901A284628BF0927FFF73CFF45
:1021280000287FF47AAF2B682E211B682846984731
:1021380000287FF472AF3E4A7B1EF8EEE88A52F818
:10214800233007EE903A38EE688AF8EEE77A3023C3
:1021580027EE888A0093FDEEC87A3B460A2217EEDE
:10216800901A2846FFF718FF002899D055E77329D9
:1021780012D0752994D1271DCDF8009053460A2214
:1021880099E72B6821781B682846271D984700285F
:102198007FF443AF3C4683E72768013F17F8011FE8
:1021A80009B904347CE72B6828461B68984700283F
:1021B800F4D032E7271D2468002C08DA2B682D217B
:1021C8001B682846984700287FF427AF6442CDF85B
:1021D800009053460A2221466EE72368D4F80890F7
:1021E80002936368039300275FFA89FA4FF0300B74
:1021F800039B9F4201DB0C3452E7002F0DDC029B4E
:102208001022D95DCDF800B002232846FFF7C4FE9E
:1022180000287FF402AF0137EAE7B9F1000FEED0EA
:102228002B6851461B68284698470028E7D0F4E6F3
:10223800D48000080FB413B504AB53F8044B0193D2
:10224800202383F3118802F047F9019A05482146B3
:10225800FFF7D6FEFFF788FE02B0BDE8104004B0D5
:10226800704700BF901F00200FB407B504AA0548A7
:1022780052F8041B0192FFF7C3FE03B05DF804EBAC
:1022880004B07047901F00207047000008B5084B45
:10229800084A9B69084C9A6140F2DE3002F075FDED
:1022A80020680028F8D003685B689847F4E700BF07
:1022B800E827002004810008E00B002008B502F0A0
:1022C8001BF9084B1A689A4207D09B69996893686A
:1022D800994202D2044802F0D3FB002383F3118809
:1022E80008BD00BFE8270020508100080EB403B5E0
:1022F80003AA00F5845052F8041B01921030FFF72E
:102308007FFE02B05DF804EB03B07047A0F19400C3
:10231800A0F58050EAE70000F0B53F4CA0423FD15D
:102328003E4D2C6B44F001042C634E0003240568D9
:10233800B440E4432540056007680225B5403D43A5
:1023480005600125002A63D142688D4022EA05050F
:102358004560C2682240C260C56803FA06F22A4393
:10236800C26083681C40846082680223B3401343C0
:1023780007298360CCBF0123002300EB8300C8BF7B
:102388000839036A89000F228A4023EA020303629C
:102398009DF81430026A03FA01F111430162F0BD9D
:1023A8001F4CA04204D11D4D2C6B44F00204BBE726
:1023B8001C4CA04204D1194D2C6B44F00404B3E723
:1023C800194CA04204D1154D2C6B44F00804ABE71E
:1023D800164CA04204D1114D2C6B44F01004A3E715
:1023E800134CA04204D10D4D2C6B44F020049BE704
:1023F800104CA04204D1094D2C6B44F0400493E7E3
:102408000D4CA04291D1054D2C6B44F080048BE714
:1024180042688D4015439BE70000024000380240A7
:102428000004024000080240000C02400010024074
:102438000014024000180240001C024041F2100241
:102448008318815841F21C025B1A8258934228BFB4
:10245800134600F5815210B5136073B141F21802AA
:102468000024845442681268D1605360C3681B6AB0
:102478001360136843F00103136010BD43681A68C2
:10248800116821F01F0130B411601168C907FCD42C
:10249800597A5A683D238B40136041F21C0200F5BB
:1024A80081531C6883581B1B835041F21002851806
:1024B80081582144A94228BF00F1100181503BB93D
:1024C80041F218030122C254036830BC1B68184744
:1024D80030BCFFF7B3BFFFF7D1BF41F21C0310B503
:1024E800C358B3F5805F15D241F21403C258541C87
:1024F800C4501170C15800F580521032914224BF67
:1025080000F11002C25041F21C028358013383507B
:10251800002010BD0C2010BDFFF7DFBFA0F1900018
:10252800A0F58050F8E741F21803C35C0BB1FFF740
:1025380085BF7047FFF7F7BFA0F19000A0F5805066
:10254800F8E783681B6841F228025B6810B5044607
:102558008058C3F163031B1A48BF63336BB1431C34
:10256800A350204441F22C03C35C0B70A358622B88
:102578004FF0000002DDA05010BD0B2010BD000080
:102588007FB541F28F030546C35C002B60D000F590
:10259800845418340DF107012846FFF7D2FF0028AC
:1025A80056D194F868209DF807303AB1082B84F882
:1025B80068006066EED00D2B0AD1EBE7082B05D139
:1025C800636E002BE6D0013B6366E3E70D2B01D079
:1025D8000A2B3FD1636E002BDCD00026E65421493C
:1025E800204604F0F1FC41F28F02012384F86830A0
:1025F800E0668DF80D30AE54202383F311881A4C11
:1026080001F06AFF01F0DEFFD4F8AC30B3421BDD05
:1026180001F0D8FFD4F8AC301448013BC4F8AC3012
:10262800D4F8943005F5845503F108021435C4F83C
:1026380094201D600399596004F190039A4228BFC1
:10264800C4F8944002F0ACF902F052F9FFF736FEF4
:1026580004B070BD626E612A9CD8511C6166A35497
:1026680098E700BF0B810008E80B0020800C0020D1
:10267800C168084A4B6809689342074A02D007486C
:10268800834204D19268B2FBF1F29A6070475268B3
:10269800F9E700BF00100140100A002000140140B3
:1026A80013B50446C068634A4368934220D002F5D4
:1026B800806293421CD002F5444293420CBF082327
:1026C80007238189009300231A468068FFF724FEB8
:1026D800E368594A5B6893420CD1584B5A6C42F0F4
:1026E80010025A645A6E22F010025A665B6E0EE0AF
:1026F8000823E6E7524A934269D1504B1A6C42F4D8
:1027080000321A641A6E22F400321A661B6E2046D2
:10271800FFF7AEFFE0684368806900221A6109216B
:102728002346484A03F068FB02686060E068436833
:10273800191D9160016A116041F218020121A1542A
:102748000C22DA60C0225A613A4A934270D002F5EC
:10275800806293426CD002F5444293420CBF082336
:102768000723818A009301231A460069FFF7D4FDE5
:10277800E06800231A460921C06903F03DFB03689D
:10278800A060E0684268111D996004F581510C3120
:10279800D96063215960416A1960196841F00101E3
:1027A8001960D36843F40053D360274B1A6802B901
:1027B8001C60264C236843B900938022244B25488B
:1027C8004FF4DC7102F07AFA206002B010BD224AA0
:1027D800934208D1194B1A6C42F480221A641A6E7B
:1027E80022F4802291E7134A934208D1134B1A6CC2
:1027F80042F400221A641A6E22F4002285E7174A6E
:10280800934208D10D4B1A6C42F480121A641A6E66
:1028180022F4801279E7124A93427FF478AF074B8B
:102828005A6C42F020025A645A6E22F020025CE789
:10283800082396E7004C0040001001400038024091
:1028480000440040DF240008E00B0020E40B0020D7
:1028580095220008280A0020004800400050004047
:102868000014014010B52023044683F3118801F0B9
:1028780033FE41F28F030122E254BDE81040FFF716
:102888001DBDFFF7EFBFA0F19400A0F58050F8E759
:1028980000F108030022583043F8042B8342FBD18F
:1028A800704700F108030022303043F8042B8342BC
:1028B8005A62FAD1704700238360036170470000B1
:1028C80008B501F019FE084B1A689A4207D09B69AF
:1028D80099689368994202D2044802F0D1F800231B
:1028E80083F3118808BD00BFE8270020C1810008D4
:1028F800037907B507EE901A002B41D0836D9FED41
:10290800210AF8EEE77A5A1E00EB8303C0ED027A3B
:102918000433002A0ADD93ED007AD3ED167A53F8D2
:10292800041D5960A7EE270A013AF2E790ED027AF2
:10293800D0ED187AC36DA7EE270A5A1E00EB830361
:102948002C33002A0ADD93ED007AD3ED167A53F87A
:10295800041D5960A7EE270A013AF2E790ED0C7AB8
:10296800D0ED227AA7EE270A80ED0C0A03F026FCA8
:10297800FDEEC07ACDED017A019803B05DF804FB55
:102988000193F9E700000000037907B507EE901AF4
:102998003BB3836D9FED140AF8EEE77A5A1E00EBFD
:1029A8008303C0ED027A0433002A0ADD93ED007A2E
:1029B800D3ED157A53F8041D5960A7EE270A013A9A
:1029C800F2E7D0ED177A90ED027AA7EE270A03F026
:1029D800F5FBFDEEC07ACDED017A019803B05DF804
:1029E80004FB0193F9E700BF0000000010B5064999
:1029F8000446002004F0E8FA20600378002B0CBF9E
:102A08000B20002010BD00BF0B810008037907B51B
:102A180000EE101A5BB3F8EEC07A90ED020AD0ED22
:102A2800035A90ED047AD0ED054A37EEC06AF0EE0D
:102A3800676AE5EE866AA5EE860A36EEC75A30EE74
:102A4800270AE4EE856AA4EE857AF6EE007A20EE8F
:102A5800270AC0ED046A80ED027A03F0AFFBFDEEB1
:102A6800C07ACDED017A019803B05DF804FB0193BB
:102A7800F9E70269036803EB82031963704708B535
:102A880000212C30FFF7F5FF08BD000003680A4657
:102A98005B680149184700BFB88100080368002235
:102AA80002711B681847000084B0F8B507AC0546EA
:102AB80084E80E002C22002103F0B1FB4FF0FF3315
:102AC8002B62104B2B60099BEB620FCC002705F1A2
:102AD800300685F8247085F8257085F8267085F805
:102AE800277085F829700FC694E803000D9B86E8C7
:102AF8000300284685F84870EB64BDE8F84004B048
:102B0800704700BF9481000838B500F12C040546D1
:102B18002046FEF70BFEE96C2046FEF791FF0021E8
:102B28002046FFF7A6FF38BD114B12484FF08072C0
:102B380010B59A61104B114A1B88D268104C13408B
:102B4800026842F20F71514342F2107291FBF2F1A6
:102B5800226823609A1A0B4B1144016018680368B5
:102B68005B689847084B00F50040186010BD00BF2F
:102B7800000002403C20002004080020FC0900203E
:102B880038200020000800203420002008B501F07B
:102B9800E9FC202383F3118801F0C0FC0F4B1A696C
:102BA800D20710D51A690E4822F001021A6103F5FE
:102BB800FA334FF480729A61FEF71AFB094B0A4800
:102BC8001988FEF7FFFB01F0BBFC002383F3118893
:102BD80001F0E0FCBDE8084002F0BEB9000C00407E
:102BE800FC090020342000200C0A00202DE9F041C7
:102BF8000446051D40F2E73642F210700027E0FB5C
:102C0800016700234FF47A7230463946FEF7CAF856
:102C1800064601F0D7FC236913B1284602F046F9AD
:102C2800234631462846024ABDE8F04102F0E8B89A
:102C38004515000838B5C26990F8483051798B427B
:102C480004462AD0D2F801502C304DB9FFF711FFB5
:102C5800E3695A7984F848200633E361002038BDD7
:102C68008B4217DA013384F8483094F84810FFF79C
:102C780000FFE36994F8482059799142ECD0D3F8E1
:102C8800011004322046B1FBF2F10131FFF7AEFF2B
:102C9800012038BDE9DD013BE5E70632C261DDE729
:102CA80073B5054670300E46FFF7A0FE044640B9DE
:102CB800024601A9286F04F05BFA019B1B781BB937
:102CC8003060204602B070BD0D24FAE738B50446DE
:102CD8000D4601F077FCD4F8AC30002B1EDD01F076
:102CE80071FCD4F8AC30013BC4F8AC30D4F8943063
:102CF80003F10802C4F894202A681A606A685A60C6
:102D0800D4F8942004F190039A4204F1980028BF63
:102D1800C4F8944001F044FE002038BD022038BDBC
:102D280038B5044601F04EFC23693BB101F04AFC7A
:102D38002369251D13B1284602F0B8F84FF0FF3576
:102D4800E3691A78042AFDD8DFE802F0030A14259B
:102D58003100236820469B6898470128F0D138BD88
:102D6800D3F801100633E3610029E9D02046FFF7C4
:102D78003DFF38BDD3F80130A269062101FB0323CA
:102D8800E36194F8293023B104F124011048FFF7D6
:102D98009DFF0121EAE794F8293023B104F12401C9
:102DA8000B48FFF793FF0023A361E36138BD226A54
:102DB800013204BFD3F801202262226A1AB906330D
:102DC8002562E361BCE7A369E361013A2262B7E7E0
:102DD800E80B00208FB5B44CB448B54DB54E402132
:102DE800FEF738FFB148FEF77DFD00F03DFB01F02E
:102DF800FFFD122104F1A400C4F89040C4F89440E7
:102E080001F08AFD002104F1980001F085FDAA482F
:102E1800FFF746FCA94AAA49AA48FFF70BFAA348B4
:102E2800FEF704FFA848FFF76FFEA848FFF76CFEFF
:102E3800A748FFF769FE2A21A648FFF71AFEA64A07
:102E4800A648136B43F001031363A54B1A6822F4D9
:102E580040321A601A6842F480321A605A6822F4C2
:102E680080725A605A685A60DA6822F44032DA602E
:102E7800DA68DA609A6822F440329A609A6842F412
:102E880000329A60FEF716F99648FEF713FA2846BC
:102E9800FEF780FB42F210712846FEF7E7FD092194
:102EA800322001F0F5FA2B688F48DA6842F0010207
:102EB800DA601A6842F001021A6003F039F841F248
:102EC800185001F062FF884803F0A6F8A04604F104
:102ED800980900248DF80D40202383F3118801F010
:102EE800FBFA4FF0FF31484601F026FD90B9D8F8BB
:102EF80090307E481C6803F10802C8F890205B688F
:102F080003937B4B9A4228BFC8F8908001F048FD94
:102F180001F0EEFCFFF7D4FC9DF80D50012D07D011
:102F2800052D00F0518129467248FFF783F9D0E753
:102F3800202383F3118801F0CFFA65484FF0FF335F
:102F480003626D4B8361C361FFF7EAFEFFF7B8FCCC
:102F58006A49206FFEF703FB014618B92046FFF7C0
:102F680095FDF7E06649206F271DFEF7F8FA68B966
:102F780001A93846FFF794FE0546002840F08680F0
:102F880001994B48FEF772FD2946E7E75D49206F36
:102F9800FEF7E5FA98B901A93846FFF781FE014620
:102FA800002873D1019B5A1E0F2A43D84FF6FF728F
:102FB800C3F1100302FA03F3534A1380CEE75349CF
:102FC800206FFEF7CCFA014610B933681D71C5E7CA
:102FD8004F49206FFEF7C3FA054618B93068FFF766
:102FE8005DFDD1E74B49206FFEF7B9FA074618BBDC
:102FF800494D3068FFF752FD2846FFF749FCAF6599
:1030080005F15C0305F1AC022F46002143F8041BCF
:103018009A42FBD104F1740A5046FFF7E7FC18B94D
:10302800B96D132940F3D88000212046FFF72EFD03
:103038003760C4E0072191E73849206FFEF78FFA1F
:103048000546002840F08B80354F3068FFF726FD95
:103058003846FFF726FCBD65FD6507F1600307F1FB
:1030680088013D46002243F8042B99425A62FAD15E
:1030780004F1740A5046FFF7B9FC002863D1606F69
:103088000378612B4ED1A96D092901DD052165E77A
:10309800183105EB81010130FEF7ECFB0028F5D172
:1030A800AB6D0133AB65E5E7E80B0020100A0020A3
:1030B800FC0E002000080020000F0020CD81000831
:1030C800DB810008E8810008440E0020940E0020EF
:1030D800F40D0020700E002000380240FC0900208A
:1030E800000002400C0A0020742500208C0C0020EF
:1030F800780C002042820008A0810008F0810008B6
:10310800F581000801820008040800200F820008E9
:10311800158200081A820008980C002023820008F3
:10312800440D0020622BB1D1E96D0929AEDC2231B2
:1031380005EB81010130FEF79DFB0028A6D1EB6D60
:103148000133EB6596E700212046FFF79FFC01233A
:1031580035603B71236820461B689847B9E62749C4
:10316800206FFEF7FCF968BB3068254DFFF796FC29
:1031780004F174070023AB602B613846FFF736FC77
:10318800002883D16946606FFEF774FB00287FF43E
:103198007DAF3846FFF72AFC00287FF477AF01A9F6
:1031A800606FFEF767FB014600287FF46FAF20468B
:1031B800FFF76CFC019BEB60009B6B6135600123A2
:1031C8002B71C7E70621C9E60E48FFF733F8FF2140
:1031D8000D48FFF74EFC7CE6606F0378612B7FF4A7
:1031E80055AF173107EB81010130FEF743FB00288B
:1031F8007FF420AFBB6D0133BB650DE72C8200085F
:10320800E40E002037820008C00E0020744B754A77
:10321800002000212DE9F04FC3E90001C3F89030E8
:10322800C3F894304FF4E133136003F18043A3F5FE
:103238003243536003F57043936013610A2393820A
:103248000F2393610D23D361674B136203F580331A
:10325800B03353620921654B918141F21001DA6064
:1032680003F110025A5041F2140101275A5041F259
:10327800180200249F5441F21C0241F290019C5014
:1032880003F581528BB0146041F22402DFF890B14B
:103298009C5041F22802DFF88CA19C5041F28F0229
:1032A8004FF0FF099F5441F2FC024FF0FF389C5049
:1032B80003F5885207AE147041F20412CDF810B02D
:1032C8009C5041F2081204AD9C50494A1A6002F120
:1032D8002000585041F2940130325A500623ADF87C
:1032E8001430CDF818A08DF820408DF82140CDF885
:1032F8000C800797CDF8249096E807008DE8070022
:103308003C4895E80E00FFF7CFFB0723ADF81430D3
:10331800022307938DF820408DF82140CDF80C80CA
:10332800CDF8249096E807008DE80700CDF810B096
:10333800CDF818A095E80E002F48FFF7B5FB082335
:10334800ADF81430032307938DF820408DF8214001
:10335800CDF80C80CDF8249096E807008DE807009A
:10336800CDF810B0CDF818A095E80E002348FFF767
:103378009BFB234B234A1A60234B244A1A600020E4
:103388001F719F6503F1080103F15804024641F8D3
:10339800040BA1420865FAD14FF07E50D8651C4B4A
:1033A8001C4C1C600121197199650021D96503F134
:1033B800300403F1080141F8042BA1424A624A652E
:1033C800CA67F8D11866144B01211971134919609D
:1033D8009A60DA601A615A610BB0BDE8F08F00BFDD
:1033E800E80B00200C20002050040008000F0020EB
:1033F80018810008440E0020940E0020F40D0020CF
:10340800FC0E0020000C0040980C0020648100088D
:10341800440D002074810008E40E00208481000817
:10342800000402400008004070477047FEE70000B3
:103438000C4B70B503F18000002493E82600043992
:10344800AA4206D3D9688A4208D310338342F4D3F8
:1034580070BD51F8046F42F8046BF1E742F8044B71
:10346800F1E700BF5482000808B501F0A3FD00F0A1
:10347800F9FC00F03AFBBDE8084000F054BC2023FA
:1034880083F3118801F028B808B501F035F8084B26
:103498001A689A4207D09B6999689368994202D240
:1034A800044801F0EDFA002383F3118808BD00BF3A
:1034B800E8270020D48200082DE9F041069F8846BD
:1034C80015461E46044610B10AB1012B02D80D4814
:1034D80001F0D6FA00230436E360A362E362079B97
:1034E800236307FB0652089B2460646084F8088005
:1034F80065612561A261E661276265626363BDE873
:10350800F08100BFE082000810B5044601F05AF8C7
:103518000023626AE36062612261A362E36220467B
:103528006FF00101BDE8104001F050BC10B5044631
:1035380001F048F820696269904203D1E2680AB153
:10354800002010BD043010BD38B50D46044601F00A
:1035580039F81DB1E369043B9D4202D90F4801F0D7
:103568008FFA226963699A4201D1E36893B92369A2
:103578001D60E2680132E260E2691344A2692361D6
:10358800934224BF636A236120460021BDE8384086
:1035980001F016BC014801F073FAE8E7EE82000872
:1035A80038B504460D4601F01DF8E36863B1E368D9
:1035B80013B90B4801F064FA6269131D1268A3621B
:1035C8001344E362002038BD237A33B929462046E4
:1035D80001F0E6FB0028E8DA38BD6FF00100FBE7F0
:1035E8000183000810B5044600F0FCFFE36813B936
:1035F8000B4801F045FAE368E269013BE36063695F
:103608001344A2696361934224BF636A6361002320
:10361800A362236B1BB12046BDE81040184710BDBC
:103628001A83000838B504460D46FFF728FFA36A39
:103638004BB929462046FFF7B3FF054618B1FFF7F7
:1036480023FF284638BDA36AE26A13F8015BA36228
:103658009342F4D32046FFF7C5FFF0E72DE9F8437E
:1036680004460F469946904612B9214801F008FAD7
:10367800FFF705FF0025A36A4BB949462046FFF727
:103688008FFF20B1FFF700FF2846BDE8F883E66A00
:10369800A16A731AA8EB05069E4228BF1E46402E53
:1036A8001BD93B4601F1400251F8040B43F8040BC7
:1036B8009142F9D1A36A40334037A3624035A26AE8
:1036C800E36A9A4202D32046FFF78CFFFFF7DCFE3D
:1036D8004545D9D2FFF7D3FECDE73846324602F04A
:1036E80093FDA36A33443744A3623544E7E700BF38
:1036F800318300082DE9F041069F884615461E468D
:10370800044610B10AB1012B02D80D4801F0B8F9EE
:10371800043606FB0753A3610023A362E362079BF9
:103728002363089B2460646084F80880E76065610F
:103738002561E661276265626363BDE8F08100BFC9
:103748004083000810B5044600F03CFF236AE3609C
:10375800636A636123610023A362E36220466FF01A
:103768000101BDE8104001F031BB38B504460D46F3
:1037780000F028FF60692269824203D1E2680AB139
:10378800002038BD50F8043B2B6038BD10B5044606
:1037980000F018FF226963699A4201D1E3688BB986
:1037A800E368E2690133E36063691344A269636112
:1037B800934224BF636A636120460021BDE810403C
:1037C80001F0FEBA014801F05BF9E9E74E83000811
:1037D80038B504460D4600F005FFE36863B1E368B9
:1037E80013B90B4801F04CF923691A1DA262E2696A
:1037F8001344E362002038BD237A33B929462046B2
:1038080001F0CEFA0028E8DA38BD6FF00100FBE7D6
:103818006583000870B50D46044600F0E3FE1DB14F
:10382800E369043B9D4202D90E4801F029F9E36897
:1038380013B90C4801F024F923691D60E268013AC4
:10384800E260E2691344A2692361934224BF636A78
:1038580023610023A362236B1BB12046BDE870409F
:10386800184770BD7F83000870B504460E4615469C
:10387800FFF705FEA36A4BB929462046FFF7A8FFC4
:10388800054618B1FFF700FE284670BDA36A1E70F2
:10389800A36AE26A01339342A36204D3E169204632
:1038A8000439FFF7B7FFFFF7EFFD0025ECE700004D
:1038B8002DE9F84304460D469946904612B9214829
:1038C80001F0DEF8FFF7DBFD0026A36A4BB9494695
:1038D8002046FFF77DFF20B1FFF7D6FD3046BDE853
:1038E800F883E76AA06A3B1AA8EB06079F4228BF3D
:1038F8001F46402F1BD905F1400355F8042B40F80B
:10390800042B9D42F9D1A36A4033A3624036A26AD0
:10391800E36A9A4204D3E16920460439FFF77AFF43
:10392800FFF7B2FD4645D9D2FFF7A9FDCDE72946F5
:103938003A4602F069FCA36A3B443D44A3623E4414
:10394800E5E700BF9283000810B5044600F03AFE90
:10395800226963699A4203D1E3681BB9184610BD0E
:103968000023FBE7A36A002BF8D0043B9B1AF5D091
:103978001360E368013BE360E3691A44A3692261C9
:103988009A4224BF636A23610023A3620123E5E707
:1039980070B50D46044610B9064801F071F8236861
:1039A8002B43236063681BB12046BDE8704018476D
:1039B80070BD00BFAE83000837B5446BD4F89434AB
:1039C8001A68117804291AD1217C022917D119798A
:1039D800128901238B40134211D101A904F14C0033
:1039E800FFF7C3FE054610B9064801F049F8D4F8B8
:1039F8009404019B017900682A4600F0E5FA03B0B7
:103A080030BD00BFCC8300081430FFF727BE4FF04D
:103A1800FF331430FFF722BE4C30FFF749BF4FF099
:103A2800FF334C30FFF744BF1430FFF7FBBD4FF0B6
:103A3800FF311430FFF7F6BD4C30FFF715BF4FF0DC
:103A4800FF324C30FFF710BF08B500F055FD084BAA
:103A58001A689A4207D09B6999689368994202D27A
:103A6800044801F00DF8002383F3118808BD00BF56
:103A7800E8270020A283000838B50C46154610B97F
:103A8800054800F0FDFF14B1012C03D115B102481F
:103A980000F0F6FF002038BDC7830008D0F8942452
:103AA80038B5136819780429054601D0012038BDB6
:103AB800017C0229FAD112795C89012090400440E6
:103AC800F4D105F11400FFF731FD02460028EDD0CE
:103AD800D5F894544FF480732868697900F048FA4F
:103AE800204638BD406BFFF7D9BF70477FB5124BF2
:103AF8000360002343608360C360012502260F4BE7
:103B0800057404460290019300F184022946009648
:103B18004FF480731430FFF7CFFC094B01930294E4
:103B280000964FF4807304F52372294604F14C0083
:103B3800FFF7E0FD04B070BDEC830008ED3A000823
:103B4800C139000870B50D460E68044610B9124810
:103B580000F096FF202383F3118800F0BDFC237C3E
:103B6800013B012B02D90C4800F08AFF2B7906EBA8
:103B780083039C616B79093346F82340AB7913B111
:103B880006EB8306B4610223C4F894542374BDE899
:103B98007040FFF759BF00BFD583000838B5044609
:103BA80000251430FFF7B0FC04F14C002577FFF72F
:103BB800C9FD201D84F854500121FFF7E9FE204675
:103BC800BDE83840FFF76ABF90F8443003F060035F
:103BD800202B19D190F84520212A0AD0222A4FF00B
:103BE80000030ED0202A0FD1084A82630722C2633D
:103BF80004E0064B83630723C363002303640120A7
:103C080070478363C363F9E7002070470608002004
:103C1800D0F8943437B51A681178042904461FD1AE
:103C2800017C02291CD11979128901238B40134286
:103C380016D100F14C052846FFF786FE80B12846CC
:103C480001A9FFF792FD054610B9064800F018FFD4
:103C5800D4F89404019B017900682A4600F0B4F96D
:103C680003B030BDDE83000800EB8103F7B59C6923
:103C780005460E4614B3202383F3118805EB860707
:103C880000F04CFC201D0821FFF782FEFB685B69F1
:103C98001B684C3413B12046FFF778FD01A9204674
:103CA800FFF763FD024658B1019B3146284600F0F4
:103CB8008BF900F045FC002383F3118803B0F0BDB5
:103CC800FB685A691268002AF3D01B8A013B13402B
:103CD800EFD105F14402E8E7093138B550F8214041
:103CE800FCB1202383F3118800F018FCD4F8942445
:103CF8001368527903EB8203DB689B695D6845B101
:103D080004216018FFF744FE294604F11400FFF768
:103D18001BFC2046FFF7C2FE00F012FC002383F3D1
:103D2800118838BD704700F045B8000038B54FF02D
:103D380080440546E3689B0702D5044800F0A0FECE
:103D48000023656323610223E36038BD14840008FF
:103D58004FF080430022DA607047000038B54FF01A
:103D680080430546DA6812F0020F1C4602D1024869
:103D780000F086FE656338BD2184000810B500F0A8
:103D8800F1FB4FF080431A6992070CD500241C619F
:103D9800202383F3118800F0C1FB00F077FE00F0C8
:103DA800CFFB84F3118800F0F5FBBDE8104001F06B
:103DB800D3B8000008B5164B16481A6C42F0010239
:103DC8001A641A6E42F001021A66134A1B6E93684F
:103DD80043F0010393604FF08041FDF759FE42F232
:103DE8001073B0FBF3F04FF0804301384FF0FF320F
:103DF8009862DA6200229A615A63DA605A60012294
:103E08005A6102211A601C20BDE8084000F040BB3E
:103E180000380240100A0020002004E008B500F035
:103E28006BFB084B1A689A4207D09B69996893689C
:103E3800994202D2044800F023FE002383F311883C
:103E480008BD00BFE82700202C840008202383F346
:103E5800118800F063BB08B500F072FB002383F300
:103E6800118808BD01F05AB901230370002343608B
:103E7800C36183620362C362436203630381438154
:103E88007047000038B50D46044600B111B90F4817
:103E980000F0F6FD202383F3118800F01DFB237842
:103EA800013B012B02D9094800F0EAFD0023E36039
:103EB80023616361A3616560204601F03FF9022335
:103EC8002370BDE83840FFF7A9BF00BF3884000859
:103ED800F8B504460E46154600F074FB04B115B952
:103EE800114800F0CDFD2378042B02D00E4800F0D5
:103EF800C7FD04EB8607FB6813B10B4800F0C0FD53
:103F08006869FD6018B11022002102F088F9A869DB
:103F180018B11022002102F082F931462046BDE88E
:103F2800F84001F0DFB900BF4184000810B504462D
:103F380000F048FB14B90D4800F0A2FD2378042BCB
:103F480002D00A4800F09CFD238903F00103238175
:103F5800638903F001036381002323616361A36123
:103F68002046BDE8104001F065BA00BF5284000841
:103F78002DE9F04105460E4690461F4600F022FB0B
:103F88000DB1032E02D90F4800F07AFD0124B44088
:103F98006B89A4B21C4202D00A4800F071FD6B89FB
:103FA8001C4305EB86030022DB686C819B69314664
:103FB800C3F808801F6028465A60BDE8F04101F048
:103FC80061BA00BF678400082DE9F04105460E4636
:103FD80090461F4600F0F6FA0DB1032E02D90F489D
:103FE80000F04EFD0124B4402B89A4B21C4202D03B
:103FF8000A4800F045FD2B891C4305EB8603002287
:10400800DB682C815B693146C3F808801F6028464D
:104018005A60BDE8F04101F0C5BA00BF78840008D5
:1040280070B50223002504460370A0F84C5080F8B0
:104038004E5080F84F5005814581C5600561456146
:10404800856180F8345001F0DFF863681B6823B19C
:1040580029462046BDE87040184770BD436802787D
:104068001B6880F85020052202700BB10421184704
:104078007047436890F850201B6802700BB1052107
:104088001847704790F8343070B5044613B10023D0
:1040980080F8343004F14402204601F0EAF96368FC
:1040A8009B6863BB94F8445015F0600615D194F8EA
:1040B800453005F07F0545EA032540F202339D426D
:1040C80000F00B8159D8022D00F0D9803DD8002D81
:1040D80000F08580012D00F0CC800021204601F001
:1040E80031FC0021204601F023FC63681B6813B1F2
:1040F800062120469847062384F8343070BD2046B0
:1041080098470028CED094F84B2094F84A3043EAD8
:104118000223E26B934238BFE36394F94430E56BC2
:10412800002B80F2FA80002D00F0EB80092384F840
:104138003430FFF78BFEE36BA26B00212046FFF7BC
:1041480043FFBDE87040FFF786BEB5F5817F00F0FC
:10415800B080B5F5407F49D0B5F5807FBDD194F8E2
:104168004630012BB9D1B4F84C3023F00203A4F83F
:104178004C30A663E6632664C5E740F201639D42BE
:104188001ED8B5F5C06F3BD2B5F5A06FA5D1B4F870
:104198004430B3F5A06F0ED194F8463084F84E3011
:1041A800204601F093F863681B6813B1012120468B
:1041B8009847032323700023A363E3632364A2E7E0
:1041C800B5F5106F32D040F602439D4251D0B5F597
:1041D800006F82D104F14F03A363012324E004F1AB
:1041E8004C03A3630223E36325648CE794F8463009
:1041F800012B7FF472AFB4F84C3043F00203B6E7FA
:1042080094F84920616894F848304D6894F847104C
:1042180043EA0223204694F84620A84700283FF4A2
:104228005CAF4368A3630368E363A4E72378042BC4
:104238000FD1FFF70BFE2046FFF778FEFFF70BFEC6
:10424800636884F84F601B68032121700BB1204616
:10425800984794F84630002BADD084F84F300423AB
:10426800237063681B68002BA5D00221204698475D
:10427800A1E7324BA3630223E36300239EE794F88C
:10428800481011F0800F204601F00F010ED001F008
:10429800E3F8012806D002287FF41FAF284BA36358
:1042A800E06368E7274BA363E56364E701F0C7F8B9
:1042B800EFE794F84630002B7FF40FAF94F84830BE
:1042C80013F00F013FF477AF1A06204602D501F02C
:1042D8004DFB70E701F040FB6DE794F84630002B8A
:1042E8007FF4FBAE94F8483013F00F013FF463AF4E
:1042F8001B06204602D501F025FB5CE701F018FB00
:1043080059E7142384F83430FFF7A0FD2B462A46DA
:1043180000212046FFF72CFE13E73DB1152384F852
:104328003430FFF793FDE36BA26BF1E70B2384F8BE
:104338003430FFF78BFD2B462A46FEE6A58400089D
:10434800A1840008A384000838B590F834300446E6
:10435800152B51D8DFE803F03D50505050504050D5
:10436800500B293850505050505050503D3D90F807
:104378004B1090F84A20C36B42EA01229A4214D9A2
:10438800C268128AB3FBF2F502FB15356DB9FFF767
:104398005DFD2B462A4629462046FFF715FEFFF706
:1043A8005AFD0A2384F8343038BD142384F8343095
:1043B800FFF74CFD00231A4619462046FFF7D8FDA3
:1043C800BDE83840FFF747BD036C03B198470023A9
:1043D800E8E70C4800F054FB0021204601F0B2FA4F
:1043E8000021204601F0A4FA63681B6813B1062176
:1043F800204698470623D5E70248BDE8384000F034
:104408003FBB00BF8A84000890F834300B2B10B5EE
:10441800044609D8092B25D223B3062B25D01B48DF
:10442800BDE8104000F02CBB142B10D0152BF6D192
:104438000B2380F83430FFF709FD002320461A4685
:104448001946FFF7C1FDBDE81040FFF704BDC3687A
:104458009B695B68CBB9036C03B19847002384F868
:10446800343010BD094800F00BFB0021204601F054
:1044780069FA0021204601F05BFA63681B6813B1F2
:104488000621204698470623E9E710BD95840008D1
:1044980000F1604300F01F02400903F56143090180
:1044A8008000C9B200F1604083F8001300F5614054
:1044B80001239340C0F8803103607047044B1A6BA6
:1044C8000AB95B6B13B1034800F0DABA704700BF52
:1044D800E8270020A784000810B5054C236B0BB90A
:1044E800636B13B1034800F0CBFA0123636310BD7B
:1044F800E8270020B684000810B5064C236B13B9D2
:10450800636B002B02DC044800F0BAFA00236363F3
:1045180010BD00BFE8270020C084000810B5064C75
:10452800236B002B01DD636B13B1044800F0A8FA7C
:104538000123636310BD00BFE8270020BB84000887
:1045480010B5064C236B002B02DD636B002B02DCDD
:10455800034800F095FA0023636310BDE8270020A4
:10456800C584000810B5202383F31188074C236BFA
:10457800002B01DB636B13B1054800F081FA236B54
:1045880001332363002383F3118810BDE82700203B
:10459800AC84000810B5202383F31188074C236BE3
:1045A800002B01DD636B13B1054800F069FA236B3A
:1045B800013B2363002383F3118810BDE827002003
:1045C800B1840008054B1A6B002A02DB5B6B002BD9
:1045D80002DC034800F054BA704700BFE827002007
:1045E800CA840008044B1A6B12B95B6B002B02DCFF
:1045F800024800F045BA7047E8270020D084000838
:1046080008B5FFF779FF084B1A689A4207D09B69EB
:1046180099689368994202D2044800F031FA00235D
:1046280083F3118808BD00BFE8270020D68400085E
:1046380010B5202383F31188FFF74EFF024B1C6946
:10464800FFF7DEFF204610BDE827002010B5202325
:10465800044683F31188FFF73FFF044B24699C420B
:1046680008BF0024FFF7CCFF204610BDE827002034
:1046780010B50446FFF7DCFFC3699C4203D0FFF77F
:10468800E5FF0028F8D110BD034B00221B605B60DA
:104698009A601B615B617047E827002010B50446EB
:1046A800FFF790FF14B90D4800F0EAF994F82030AC
:1046B8000BB10F2B02D1094800F0E2F9002384F86E
:1046C8002030A268064B1B6899689142FBD25A6851
:1046D80023606260204614605C6010BDF8840008A6
:1046E800E827002038B50446202383F31188FFF714
:1046F80015FF94F820300025052B0BD8DFE803F0D0
:10470800030A0A081C16FFF71BFF85F3118838BD3A
:10471800636A1D604FF0FF3363622046FFF7BEFFF8
:10472800FFF70EFF002383F3118838BD656AFFF792
:1047380049FFAB680133AB6094E80C001A6022684B
:104748005360E7E710B50446FFF73CFF14B90D487E
:1047580000F096F994F820300BB10F2B02D10948DC
:1047680000F08EF9002384F82030A268064B1B68FD
:1047780099689142FBD85A682360626020461460A9
:104788005C6010BD04850008E827002070B50F4C58
:10479800A5690646FFF726FF236885F820601A6892
:1047A800226054600122A36183F82020EFF309837B
:1047B800EA69643B9A4202D9054800F061F9294642
:1047C800A069BDE87040FBF737BD00BFE8270020AF
:1047D8002285000870B50E4686B00546FFF702FF31
:1047E800731C0D4C13D0A3690C4A314601A800F084
:1047F80007FB2846FFF7CAFFFFF7E4FE049B13B147
:1048080001A800F053FBA369586A06B070BD28469A
:10481800FFF7BCFFF7E700BFE8270020ED460008D8
:10482800F8B5194C05460F46A669FFF7DBFE236865
:10483800A34207D0A2699B6892689A4202D21348A1
:1048480000F01EF96F62AA68B3689A4204D8284635
:10485800BDE8F840FFF722BF3046FFF71FFF0123EE
:104868000646A56185F82030EFF30983C269643BE9
:104878009A4202D9064800F003F931462846BDE8B5
:10488800F840FBF7D9BC00BFE827002015850008D1
:1048980022850008044B1A689B6990689B689842B7
:1048A80094BF002001207047E827002038B50E4C3F
:1048B8002368A0691A6822605460012283F82020C6
:1048C800A361FFF73FFF0546EFF30983C269643B25
:1048D8009A4202D9054800F0D3F82946A069BDE8F4
:1048E8003840FBF7A9BC00BFE82700202285000854
:1048F80008B5FFF777FEFFF765FE064B1A689B6958
:1049080092689B689A4203D9BDE80840FFF7CEBF7A
:1049180008BD00BFE827002038B50D46044608B199
:10492800002902DA034800F0ABF824606460A5604F
:1049380038BD00BF3185000838B504460D46FFF77D
:1049480051FE14B9144800F09BF8A368002B2368A3
:104958000BDB9C420BD1A3685A1E002AA26018DA0E
:104968004DB9A3604FF0FF3038BD9C42F3D10A48DF
:1049780000F086F8EFE7094B9B695C6262681C608F
:104988005A602946136005206360BDE83840FFF788
:1049980021BF002038BD00BF41850008E82700205E
:1049A80010B50446FFF70EFE14B90F4800F068F87A
:1049B800A368002B236810DB9C4210D1A368013345
:1049C800002BA3600FDC2068036823605C60002371
:1049D8004362BDE81040FFF761BE9C42EED1024839
:1049E80000F04EF8EAE710BD53850008FEE7000026
:1049F80038B51B4CFFF748FE002500F0F3F980227C
:104A08001849256304F13800656300F0E7F8164B90
:104A1800C361012380F82030144B154AD968A0617E
:104A280021F4E0610904090C0A431249DA60CA68F2
:104A380042F08072CA6010490A6842F001020A60B6
:104A48001022DA77202283F82220FFF737FD85F33A
:104A5800118862B60948BDE8384000F00FB900BFB8
:104A6800E8270020E28400080004002000ED00E0B0
:104A78000003FA05F0ED00E0001000E06C85000886
:104A880072B6014BD862FEE7E82700202DE9F84FFF
:104A9800274CFFF797FD4FF00008FFF793FDE569F6
:104AA80004F11C0AC1464FF08047A66A7B6AAA68CF
:104AB8009E1B964221D32027AA68A36AD5F80CB07A
:104AC8001344A3622B685345C3F804A0A6EB02065F
:104AD800E361C5F80C8001D1FFF73AF9FFF730FD23
:104AE80089F311882869D84787F31188FFF716FDDD
:104AF800E569AB689E42DFD2D5E7E269524515D039
:104B08009168A3628E1B9660AD68022D2CBF5D195B
:104B18009D1C2846FFF722F9A36A7A6AD21AEB1A73
:104B28009A4203D972B6034BE362FEE7BDE8F88FF9
:104B3800E827002060850008034B59685A68521A14
:104B48009042FBD8704700BF001000E0202383F399
:104B58001188FFF7C1BC000008B5FFF7CDFC084B72
:104B68001A689A4207D09B6999689368994202D259
:104B78000448FFF785FF002383F3118808BD00BFB1
:104B8800E8270020898500080368984270B5044624
:104B98000E4602D10948FFF773FF25682B6823608A
:104BA8005C6095F82030042B02D00448FFF768FFBA
:104BB8006E622846BDE87040FFF770BDA185000809
:104BC80010B5044610B90448FFF75AFF21460820DB
:104BD800BDE81040FFF7FEBD9585000882600222FF
:104BE80080F82020002280F82120012280F822204D
:104BF800034A8161516902614161086150617047EE
:104C0800E827002010B50446FFF7DCFC14B9194862
:104C1800FFF736FF6268500708D1A368590705D126
:104C28009A4203D29B1AB3F59C7F02D21148FFF730
:104C380027FFE368FF2B01D8236913B90D48FFF755
:104C48001FFFA068636840F80C3CA0F18C0340F893
:104C58001C3C236940F84C3C636940F8483C064BCF
:104C680040F82C3CE26821682838BDE81040FFF77E
:104C7800B5BF00BFB58500085902000810B5044645
:104C88004068FFF7F5FC10B10B48FFF7F9FEA26882
:104C9800636855219A420CD8FFF758FF2046FFF762
:104CA800B1FF00210446FFF7BBFDFFF755FF204683
:104CB80010BD03F8011BEDE7CB850008F8B50C46DD
:104CC80016461F46054648B1420707D1B1F59C7FF5
:104CD80004D34B0702D1FF2E00D817B91748FFF7A6
:104CE800CFFE2846FFF7C4FC10B11448FFF7C8FEF2
:104CF8002A192B4655219A421CD8FFF727FFA4F101
:104D080028002844A0F16403C360069B40F8203CB7
:104D18000B4B40F8043C3246C56140F8247C0949F5
:104D2800FFF75CFF00210446FFF77AFDFFF714FF49
:104D38002046F8BD03F8011BDDE700BFD785000852
:104D480059020008F485000808B5094B9B6993F8D7
:104D58002220586222B95A69196911611B695A617E
:104D68000F20FFF713FD0348BDE80840FFF788BE92
:104D7800E8270020E985000810B50446FFF7E6FE9D
:104D88002046BDE81040FFF7DFBF10B50446FFF727
:104D9800DDFE2046FFF714FFBDE81040FFF7DCBE3C
:104DA80049B1064B42689B6918605A6013604360BA
:104DB8000420FFF70FBD4FF0FF307047E8270020B1
:104DC8000368834201D0FFF7DFBE704738B5044659
:104DD8000D4623689C4200D138BD29462046FFF77E
:104DE800D3FEF6E7054B03F11C02DA611A624FF0B5
:104DF800FF325A6200229A62704700BFE8270020FB
:104E08002DE9F04106460C4615461F46FFF7DAFB2A
:104E18000EB105B114B92348FFF732FE4FF08043B5
:104E2800F560586A204B37611A46022C52F81C5F0D
:104E3800214638BF022195421F460AD19862DE6199
:104E48001E62084435607560B160BDE8F041FEF748
:104E58006DBF9B6AAA68C41A0C1914D32D68A41ACA
:104E6800DFF84080AB689C4213D86B68736035608C
:104E78001E606E60B460A8684FF0FF33001BA86026
:104E88007B62BDE8F0819442EAD21819FEF766FF0A
:104E9800E6E7B54202D14046FFF7F2FDAB682D6860
:104EA800E41ADFE7FB850008E827002010B5044670
:104EB800FFF788FB14B91E48FFF7E2FDE36813B952
:104EC8001B48FFF7DDFD1B490B4653F81C2F944286
:104ED80022680DD061680A60226851609A424FF0DA
:104EE8000001E16022D09368A1680B44936010BD73
:104EF80000209A42CA615360E06003D1BDE81040C7
:104F0800FEF726BF9368A068034493604FF0804281
:104F1800886A526A121A934208D9991A012998BFC5
:104F2800931C1844BDE81040FEF718BF10BD00BF21
:104F380006860008E8270020064A536823F0010384
:104F48005360EFF30983683383F30988002383F3FD
:104F58001188704730EF00E010B5202383F31188E3
:104F6800104B5B6813F4006318D0F1EE103AEFF3BE
:104F780009844FF0807344F84C3C0B4BDB6844F8D1
:104F8800083CA4F1680383F30988FFF783FC18B190
:104F9800064B44F8503C10BD054BFAE783F31188E3
:104FA80010BD00BF00ED00E030EF00E06D0200082A
:104FB8007802000808B5184B1A696FEAC2526FEAFE
:104FC800D2521A611A69C2F308021A614FF0FF300F
:104FD8001A695A69586100215A6959615A691A6AE5
:104FE80062F080521A621A6A02F080521A621A6AD1
:104FF8005A6A58625A6A59625A6A1A6C42F080525E
:105008001A641A6E42F080521A661B6E00F068FE2F
:10501800BDE8084000F005BF00380240836D30B598
:1050280000229D68446D11464FF0FF3004EB421397
:1050380001329542C3F80019C3F81019C3F80809DA
:10504800C3F8001BC3F8101BC3F8080BEED24FF0CF
:105058000113C4F81C3830BD890141F020010161F9
:1050680003699B06FCD41220FFF766BD2DE9F74FB4
:10507800DFF8A090DFF8A0B000F1010805464FEA7C
:105088000838CA46AF1C09EB87035B685A69516840
:105098001468A1420DD3D9F854200120D2F834382D
:1050A80000FA05F523EA0505C2F8345803B0BDE84F
:1050B800F08F1B8A641A9C4228BF1C46D9F85430CA
:1050C80003EB4511D1F8181989B2B4EB810F1FD839
:1050D80003EB0801966894B958460193FFF7D0FC92
:1050E800019B326843F808200AEB87077B685B69F5
:1050F8009A6822449A605A6814445C60C2E7043E85
:10510800234656F8042F0A60042BEDD9043BF8E730
:105118000020CBE7902900202186000810B5054C17
:105128002046FEF7A1FE4FF0A0436365024BA3653E
:1051380010BD00BF90290020608600080378012B6D
:1051480070B5054650D12A4B446D98421BD1294B66
:105158005A6B42F080025A635A6D42F080025A65D7
:105168005A6D5A6942F080025A615A6922F08002E7
:105178005A610E2143205B69FFF78AF91E4BE360F1
:105188001E4BC4F800380023C4F8003EC023236037
:105198006E6D4FF45023A3633369002BFCDA0123AF
:1051A80033610C20FFF7C8FC3369DB07FCD41220FD
:1051B800FFF7C2FC3369002BFCDA0026A6602846FC
:1051C800FFF72CFF6B68C4F81068DB68C4F8146834
:1051D800C4F81C684BB90A4BA3614FF0FF336361F5
:1051E800A36843F00103A36070BD064BF4E700BF5A
:1051F800902900200038024040140040030020029B
:10520800003C30C0083C30C0F8B5446D054600216C
:105218002046FFF721FFA96D00234FF001128F6888
:10522800C4F834384FF00066C4F81C284FF0FF303B
:1052380004EB431201339F42C2F80069C2F8006BC5
:10524800C2F80809C2F8080BF2D20B686A6DEB6560
:10525800636210231361166916F01006FBD1122041
:10526800FFF76AFCD4F80038AA6D23F4FE63C4F88B
:105278000038A369526843F4402343F01003A36144
:105288000923C4F81038C4F814380D4BEB604FF0FC
:10529800C043C4F8103B0B4BC4F8003BC4F810697A
:1052A800EE6DC4F8003906F110039342EB6502D99C
:1052B8000548FFF7E5FB46F48016A662F8BD00BF77
:1052C8003C8600084080001013860008426D90F864
:1052D8004E10D2F8003823F4FE6343EA0113C2F8F3
:1052E800003870472DE9F84F0FB200EB87080646E3
:1052F800D8F80C20136803F00303022B0D465CD08A
:10530800032B5DD045494648012B0CBF8146894691
:10531800746D680123180021C3F8101B916905F109
:10532800100E00294FD0518A05F158035B0141EA5C
:105338000901E1500123D4F81C1803FA0EF30B43BA
:105348002044C4F81C380023C0F810395369002BD6
:1053580049D0138A928BD6F85CB09B08012A88BF83
:105368005343B26D52684FEA034A5B44934205F1D6
:10537800FF37F36502D92B48FFF782FB403704EB70
:1053880087074AEA0B037B602946706DFFF764FEC6
:10539800D8F80C301B8A05F1480243EA85535201BC
:1053A80043EA0903A3500123D4F81C2803FA05F59E
:1053B8001543C4F81C58BDE8F88FDFF87090A7E7CC
:1053C800DFF86C90A4E704EB4713D3F8001B21F433
:1053D8000041C3F8001BD4F81C18012303FA0EF38C
:1053E80021EA0303ACE705F13F0304EB83030E4A0C
:1053F8005A6004EB47172946706DFFF72DFED7F862
:10540800003923F40043C7F80039D4F81C380122C6
:1054180002FA05F523EA0505CBE700BF0080001076
:1054280000800410138600080004000200800810A1
:1054380000800C10826D1268C265FFF7EFBD58310D
:10544800436D49015B5813F4004004D013F4001F66
:1054580014BF0120022070474831436D49015B5851
:1054680013F4004004D013F4001F14BF01200220DD
:10547800704700EB8101CB68196A0B6813604B68B1
:105488005360704700EB810330B5DD68AA69136883
:10549800D36019B9402B84BF402313606B8A14680A
:1054A800426D1C44013CB4FBF3F46343033323F023
:1054B800030302EB411043EAC44343F0C043C0F87E
:1054C800103B2B6803F00303012B09B20ED1D2F86D
:1054D800083802EB411013F4807FD0F8003B14BF6A
:1054E80043F0805343F00053C0F8003B02EB4112F5
:1054F800D2F8003B43F00443C2F8003B30BD000043
:105508002DE9F041264D6E6D06EB40130446D3F8A5
:10551800087BC3F8087B38070AD5D6F8143819076A
:1055280006D505EB84032146DB6828465B68984767
:10553800FA0733D5D6F81438DB072FD505EB8403E3
:10554800D968ECB98B69488A5E68B6FBF0F200FB53
:105558001262AAB91868DA68904211D2121A83E85E
:105568001400202383F31188FEF7D8FF21460C4846
:10557800FFF788FFFEF7E4FF84F31188BDE8F081A8
:10558800012303FA04F26B8923EA02036B81CB68D7
:1055980023B121460248BDE8F0411847BDE8F08133
:1055A8009029002000EB810370B5DD68436D6C69BC
:1055B8002668E6604A0156BB1A444FF40020C2F838
:1055C80010092A6802F00302012A0AB20ED1D3F8A0
:1055D800080803EB421410F4807FD4F8000914BFC4
:1055E80040F0805040F00050C4F8000903EB42122C
:1055F800D2F8000940F00440C2F80009D3F8340892
:10560800012202FA01F10143C3F8341870BD19B937
:10561800402E84BF4020206020682E8A841940F0E4
:105628000050013C1A44B4FBF6F440EAC440C6E713
:105638002DE9F041234D6E6D06EB40130446D3F877
:105648000879C3F80879F9071ED5D6F81038DA07AB
:105658001AD505EB8003D9684B691868DA68904257
:105668001FD2121A4FF000081A60C3F804802023D2
:1056780083F31188FEF752FF21462846FFF792FF71
:10568800FEF75EFF88F311883B0618D5D6F8342854
:105698000123A340134212D02046BDE8F041FFF792
:1056A800E5BC012303FA04F22B8923EA02032B81C8
:1056B8008B68002BE8D0214628469847E4E7BDE8E8
:1056C800F08100BF902900202DE9F84FFEF74AFF2E
:1056D8009648456D6E69AB691E4016F4805F6E6131
:1056E800044607D0FEF79CFCFEF754FFBDE8F84FD0
:1056F800FFF732BC002E12DAD5F8003E8B489B0724
:105708001EBFD5F8003E23F00303C5F8003ED5F8C8
:10571800043823F00103C5F80438FEF7AAFC37055E
:1057280002D58248FEF79AFCB0040CD5D5F80838A3
:1057380013F0060FEB6823F470530CBF43F41053B7
:1057480043F4A053EB60310704D56368DB680BB101
:1057580076489847F2025AD4B3020CD5D4F854804C
:10576800DFF8C8A100274FF00109A36D9B68F9B2C3
:105778008B4280F08780F70619D5616D0A6AC2F3FB
:105788000A1702F00F0302F4F012B2F5802F00F0AE
:10579800A180B2F5402F0AD104EB830301F58051B3
:1057A800DB68186A00231A469F4240F0878030035E
:1057B800D5F8184813D5E10302D50020FFF7A0FE5D
:1057C800A20302D50120FFF79BFE630302D5022046
:1057D800FFF796FE270302D50320FFF791FE750316
:1057E80082D5E00702D50020FFF722FFA10702D5E6
:1057F8000120FFF71DFF620702D50220FFF718FFFF
:1058080023077FF571AF0320FFF712FF6CE7D4F889
:105818005480DFF818A100274FF00109A36D9B6899
:105828005FFA87FB5B4597D308EB4B13D3F8002946
:1058380002F44022B2F5802F22D1D3F80029002AA1
:105848001EDAD3F8002942F09042C3F80029D3F8B1
:105858000029002AFBDB5946606DFFF7FDFB228912
:1058680009FA0BF322EA0303238104EB8B03DB68B9
:105878009B6813B15946504698475846FFF7F6FBC0
:105888000137CBE708EB4112D2F8003B03F4402381
:10589800B3F5802F10D1D2F8003B002B0CDA6289C7
:1058A80009FA01F322EA0303638104EB8103DB684D
:1058B800DB680BB150469847013756E79C0708BF8D
:1058C8000A68072B98BF027003F101039CBF120AF4
:1058D800013069E7023304EB830201F58051526815
:1058E80090690268D0F808C04068A2EB000E002258
:1058F800104697420AD104EB830463689B699A684F
:105908003A449A605A6817445F6050E712F0030FF0
:1059180008BF0868964588BF8CF8000002F10102AC
:1059280084BF000A0CF1010CE3E700BF90290020B6
:10593800436D03EB4111D1F8003B43F40013C1F868
:10594800003B7047436D03EB4111D1F8003943F434
:105958000013C1F800397047436D03EB4111D1F8CA
:10596800003B23F40013C1F8003B7047436D03EB81
:105978004111D1F8003923F40013C1F800397047F8
:1059880008B5FEF7B9FD084B1A689A4207D09B691B
:1059980099689368994202D20448FFF771F8002386
:1059A80083F3118808BD00BFE82700206C86000833
:1059B80008B5FEF7D7FD084B084A196801F03D0104
:1059C800996053680BB190689847FEF7E3FDBDE80E
:1059D8000840FFF7C1BA00BF00600240582000200D
:1059E80008B5FEF7BFFD094B1968890901F03D01AB
:1059F8008A019A60064AD3680BB110699847FEF786
:105A0800C9FDBDE80840FFF7A7BA00BF0060024023
:105A18005820002008B5FEF7A5FD094B1968090CA8
:105A280001F03D010A049A60064A53690BB1906976
:105A38009847FEF7AFFDBDE80840FFF78DBA00BFF5
:105A4800006002405820002008B5FEF78BFD094B86
:105A58001968890D01F03D018A059A60064AD369E3
:105A68000BB1106A9847FEF795FDBDE80840FFF7AF
:105A780073BA00BF006002405820002008B5FEF746
:105A880071FD084B084A596801F03D01D960536A15
:105A98000BB1906A9847FEF77DFDBDE80840FFF717
:105AA8005BBA00BF006002405820002008B5FEF72E
:105AB80059FD094B5968890901F03D018A01DA60ED
:105AC800064AD36A0BB1106B9847FEF763FDBDE831
